:020000040800F2
:1000000088060020D5010008C3410008F10B000854
:10001000C1410008D30500082D420008000000007F
:10002000000000000000000000000000C7410008C0
:10003000D505000800000000C5410008C9410008BE
:10004000EF010008EF010008EF010008EF010008D0
:10005000EF010008EF010008EF010008EF010008C0
:10006000EF010008EF010008EF010008EF010008B0
:10007000EF010008EF010008EF010008EF010008A0
:10008000EF010008EF010008EF010008EF01000890
:10009000EF010008EF010008EF010008EF01000880
:1000A000EF010008EF010008EF010008EF01000870
:1000B000EF010008EF010008EF010008EF01000860
:1000C000EF010008EF010008EF010008EF01000850
:1000D000EF010008EF010008EF010008EF01000840
:1000E000EF010008EF010008EF010008EF01000830
:1000F000EF010008EF010008EF010008EF01000820
:10010000EF010008EF010008EF010008EF0100080F
:10011000EF010008EF010008EF010008EF010008FF
:10012000EF010008EF010008EF010008EF010008EF
:1001300000F002F800F03FF80AA090E8000C8244BA
:100140008344AAF10107DA4501D100F034F8AFF297
:10015000090EBAE80F0013F0010F18BFFB1A43F0A5
:1001600001031847305D0000505D0000103A24BFC5
:1001700078C878C1FAD8520724BF30C830C144BF0C
:1001800004680C607047000000230024002500264E
:10019000103A28BF78C1FBD8520728BF30C148BFEA
:1001A0000B607047782900F07180002070471FB500
:1001B0001FBD10B510BD00F0D2F91146FFF7F7FFD3
:1001C00004F07EF800F0F0F903B4FFF7F2FF03BC8F
:1001D00000F0F8F90948804709480047FEE7FEE7C4
:1001E000FEE7FEE7FEE7FEE7FEE7FEE7FEE7FEE7E7
:1001F00004480549054A064B704700002B42000899
:1002000031010008880000208806002088020020B4
:10021000880200200FB41CB5074B06AA7B44694630
:100220000090059800F083F90020694600F092F9EB
:100230001CBC5DF814FB00003503000070B50446DB
:1002400085690068C10601D5302600E02026C00778
:1002500007D070BDD4E9012130469047206A401C88
:1002600020626D1EF6D570BD70B5044685690078B4
:10027000C00707D170BDD4E9012120209047206A32
:10028000401C20626D1EF6D570BD000070B504469E
:100290000D4621461068AFF300802188090502D57C
:1002A0000F4A7A4402E00E4A7A440E32002104F1E9
:1002B000240305E000F00F060009965D5E54491C1A
:1002C0000028F7D120780023000704D5702D02D034
:1002D00009B1022311322046BDE8704000F0C8B8D1
:1002E000B25B00002DE9F05F894604464FF0000A3A
:1002F000DFF824B1FB44C0F820A02046E16888471D
:1003000000287DD0252806D0D4E901219047206A15
:10031000401C2062F1E700255F462046E1688847DF
:100320002028064607DB312E05D2B81910F8200C1C
:1003300008B10543F1E7A80701D525F00405C4F885
:100340001CA00027C4F818A02A2E09D0304603F0BC
:100350007EFF38B304EB8708303EC8F8186019E018
:1003600059F8041B204604EB87029161E168884735
:10037000012F064618D1E069002820DA25F0200573
:100380001DE0D8F8180000EB800006EB4000303884
:10039000C8F818002046E1688847064603F057FF72
:1003A0000028EED1012F0AD02E2E08D12046E16878
:1003B00088477F1C0646022F45F02005C4DBA06954
:1003C000002803DA404245F00105A061E80701D0AA
:1003D00025F01005A6B1A6F14100192802D8203653
:1003E00045F400654A463146204625604D46FFF7F4
:1003F000D9FE60B1012807D0ED1D25F0070000E00F
:1004000007E000F1080978E705F1040975E73046CF
:100410007AE7206ABDE8F09F885B00004FF0000299
:1004200000B5134694469646203922BFA0E80C50EA
:10043000A0E80C50B1F12001BFF4F7AF090728BFC5
:10044000A0E80C5048BF0CC05DF804EB890028BF41
:1004500040F8042B08BF704748BF20F8022B11F06A
:10046000804F18BF00F8012B7047704770477047E6
:100470002DE9F0470D4699469246044600F12408BE
:100480000168880604D5E06921F01001216000E0D0
:100490000120A84201DD471B00E00027A1697A196D
:1004A00002EB0900081AA0612078C00602D4204699
:1004B000FFF7C4FE002608E0D4E901211AF806007F
:1004C0009047206A401C761C20624E45F4DB207861
:1004D000C0060AD52046FFF7B1FE06E0D4E90121A7
:1004E00030209047206A401C2062381EA7F1010787
:1004F000F4DC07E0D4E9012118F805009047206AF0
:10050000401C2062281EA5F10105F3DC2046FFF700
:10051000ABFE2078000602D50220BDE8F08701205E
:10052000FBE7000001694A1C02610878704700B5CA
:100530008FB0CDE901310021059105497944CDE91C
:10054000031011466846FFF7CDFE0FB000BD000056
:10055000E5FFFFFF0A6802F8010B0A607047754665
:1005600000F02CF8AE4605006946534620F007001F
:10057000854618B020B5FFF73BFEBDE820404FF0A0
:1005800000064FF000074FF000084FF0000B21F07D
:100590000701AC46ACE8C009ACE8C009ACE8C0094A
:1005A000ACE8C0098D46704710B50446AFF3008033
:1005B0002046BDE81040FFF707BE00000048704726
:1005C0002800002001491820ABBEFEE726000200EB
:1005D0007047FEE7704700000148806870470000E0
:1005E0000000002002488168027811448160704751
:1005F00000000020074810B5016841F010010160BB
:10060000032000F067F80F2000F006F800F024F84F
:10061000002010BD0020024070B50D4D04464FF47F
:100620007A712878B1FBF0F00A490968B1FBF0F063
:1006300000F0CAFA48B9102C07D200222146501EF9
:1006400000F028F800206C6070BD012070BD000033
:10065000000000200C0000200C4808B5816941F022
:1006600001018161816901F001010091C16941F0DD
:100670008051C161C06900F0805000900448416819
:1006800021F0E06141F00071416008BD00100240BE
:1006900000000140F0B40E4B1B680C46C3F302236C
:1006A000C3F10705042D00D90425191D072901D21E
:1006B000002300E0DB1E012606FA05F1491E214059
:1006C00099409E40761E16403143F0BC03F0AFBD0A
:1006D0000CED00E0064900F0070208684FF6FF0342
:1006E000184040EA0220034A1043086070470000A7
:1006F0000CED00E00000FA052DE9F0470F4605007B
:1007000061D0434E306800F00700B84209D230682B
:1007100020F0070038433060306800F00700B8422E
:1007200051D128683B4C810712D5400703D560683A
:1007300040F4E06060602878000703D5606840F40A
:10074000605060606068A96820F0F0000843606055
:100750002878C00728D06868012810D021680228AE
:1007600010D0890700292EDA616821F003010143C6
:100770006160FFF731FF804641F288390DE0216862
:100780008903EFE78901EDE7FFF726FFA0EB0801FA
:10079000494502D90320BDE8F0876068696800F028
:1007A0000C00B0EB810FEFD1306800F00700B842C9
:1007B0000BD9306820F0070038433060306800F013
:1007C0000700B84201D00120E5E72878400705D5A9
:1007D0006068E96820F4E0600843606028780007FA
:1007E00006D56068296920F4605040EAC100606065
:1007F00000F018F86168084AC1F30311515CC84061
:100800000649086006480068FFF706FF0020C2E7B7
:100810000020024000100240884600080C00002022
:100820000400002012A185B00FC98DE80F0014A0AC
:10083000144A006804905168134801F00C03042B1B
:1008400010D0082B0ED1C1F38343C9031DF8030058
:100850000AD5516804AAC1F34041515C0A4A504389
:10086000B0FBF1F005B0704708494843FAE70000D3
:1008700002030405060708090A0B0C0D0E0F1010E1
:10088000010200000010024000127A0000093D0041
:100890002DE9F84F040070D02078C04DC00749D032
:1008A0006868C0F38100012807D06868C0F3810040
:1008B000022809D16868C00306D52868800339D5A5
:1008C00060680028E7D035E06068B0F5803F0BD065
:1008D00010B1B0F5A02F11D0286820F48030286026
:1008E000286820F4802002E0286840F480302860E6
:1008F000606890B1FFF770FE06460AE0286840F491
:1009000080202860F0E700BFFFF766FE801B6428A8
:1009100073D828688003F7D50CE0FFF75DFE064624
:1009200005E000BFFFF758FE801B6428F0D8286858
:100930008003F7D420789A4E80074FF001094FF0DA
:10094000000839D5686810F00C0F07D06868C0F34C
:100950008100022809D16868C00306D4286880078E
:1009600014D52069012808D110E02069B0B1C6F87B
:100970000090FFF731FE074605E00AE1FFF72CFE85
:10098000C01B0228C4D828688007F7D52868616989
:1009900020F0F80040EAC10028600DE0C6F80080B1
:1009A000FFF71AFE074604E0FFF716FEC01B0228F9
:1009B00023D828688007F7D4207800072CD57948F9
:1009C000A169D9B1C0F80090FFF706FE074604E020
:1009D000FFF702FEC01B02280FD8686A8007F7D510
:1009E00071484FF4FA510068B0FBF1F0009000BF7D
:1009F0000098411E0091FAD20EE080E0C0F800801D
:100A0000FFF7EAFD074604E0FFF7E6FDC01B0228FA
:100A100075D8686A8007F7D42078400760D5E86900
:100A20000027C00008D4E86940F08050E861E86918
:100A3000012700F0805000905C480168C90513D47C
:100A40000168834641F480710160FFF7C5FD82466D
:100A500006E000BFFFF7C0FDA0EB0A0064284ED8F7
:100A6000DBF80000C005F5D5E06801280AD008B120
:100A7000052813D0286A20F001002862286A20F097
:100A8000040002E0286A40F001002862E06841F2B8
:100A9000883B98B1FFF7A0FD82460BE0286A40F042
:100AA00004002862EEE700BFFFF796FDA0EB0A0105
:100AB00059455AD8286A8007F6D50CE0FFF78CFD17
:100AC000824605E0FFF788FDA0EB0A0159454CD8A6
:100AD000286A8007F6D41FB1E86920F08050E861E9
:100AE000E06988B36968C1F38101022944D0022812
:100AF000C6F8608004D0FFF76FFD044638E034E0AC
:100B0000FFF76AFD074604E0FFF766FDC01B0228F9
:100B10002BD828688001F7D4206AB0F5803F05D132
:100B20006868A16820F4003008436860D4E90801CF
:100B30000843696821F4741108436860C6F860903E
:100B4000FFF74AFD044606E025E000BFFFF744FD3D
:100B5000001B022809D828688001F7D51BE000BFD8
:100B6000FFF73AFD001B022802D90320BDE8F88FE9
:100B700028688001F4D40EE00128F7D06868226A62
:100B800000F48031914204D1616A00F4701088420F
:100B900001D00120EAE70020E8E700000010024051
:100BA00000004242800442420C00002000700040DD
:100BB0004FF0E0210428086903D020F00400086108
:100BC000704740F00400FAE710B5401EB0F1807F96
:100BD00001D3012010BD4FF0E02460610F216017A8
:100BE00003F025FB0020A06107202061002010BD3C
:100BF000FEE700002DE9F043174C814600252088D0
:100C000066884643A088A0F5D041043902D1A07976
:100C1000012807D00021084603F07EF903F0B0FA5E
:100C20000E4814E00020A0712A2767814FF02B089E
:100C3000A4F80C80014603F06FF90120A071A4F81C
:100C40000A80A781EAE700BFA0F800906D1CB542BA
:100C5000FAD3BDE8F0830000180000200008006C03
:100C60002DE9F04F4A492A242B25898845F2105A4C
:100C70004FF4305B4FF4285E4FF448764FF0F00CA1
:100C800049F241394FF4A07345F210374FF4F07236
:100C900080B13F484FF00108494580F80680038045
:100CA000A0F802C001D0B9423ED12C260681448171
:100CB000858157E036484FF00008494580F80680A6
:100CC000A0F800C0438006D0A1F5D04CBCF1040CC4
:100CD00001D0B9420CD12C2606814481A1F5D04423
:100CE0008581043C01D0B94244D10380428041E077
:100CF000514507D1A0F808B0A0F80AE04FF42C51F4
:100D000081810EE0A1F5C853633B06D02221018109
:100D100020214181212181812CE02C2101814581EB
:100D200084810280468025E0A1F5D04CBCF1040C02
:100D300009D051450BD1A0F808B0A0F80AE04FF453
:100D40002C54848121E02C260681458109E0A1F5FF
:100D5000C85CBCF1630C12D022240481212444819C
:100D600020248481A1F5D044043C01D0B94201D1B2
:100D700002804380BDE8F04F002002F0F9BF4FF041
:100D80002C0CA0F808C04481858106804280E9E7E8
:100D9000180000202DE9F04FDFF800810C460146D5
:100DA000060A40469346B8F80450DFF8F4A082895A
:100DB000230A4089A5F513470AF10209413F19D0DA
:100DC000A5F5A647103F15D0A5F5AA47103F15D0A9
:100DD0004746A5F5C85CBE793F887F1A7F1EBCF1E7
:100DE000630C20D0A5F5D04CBCF1040C33D0012EFF
:100DF00043D043E05546AAF8000033E0AAF80000CB
:100E0000A9F80060401CAAF80000C8B2A9F80000C8
:100E1000AAF80020A9F80030521CAAF80020E0B27D
:100E2000A9F8000031E006B9B9B2AAF800000D0A2D
:100E30004846A9F80050CFB2A9F80070A9F80050B0
:100E4000C9B2A9F80010AAF80020A9F80030E1B250
:100E5000A9F800100DE0012E00D1B9B25546AAF84C
:100E600000000E0A4846A9F80060C9B2A9F80010AF
:100E70002A800380E1B2018007E0B9B203F08AF969
:100E8000B8F80C00214603F085F9B8F80810AAF864
:100E90000010A9F800B0BDE8F08F00001800002095
:100EA000FE07006C2DE9F05FFE484069FD4940F403
:100EB00080704861886940F008008861886940F066
:100EC00020008861886940F040008861886940F4AA
:100ED00080708861F4480068F34920F00F000860D2
:100EE000086840F003000860F0480068F0490840D6
:100EF000EE4908600868EF490843EC490860081F9C
:100F0000016801F0FF210160016841F0BB1101603F
:100F1000E948016800210160026842F0BB320260CA
:100F2000001F026822F070420260026842F0304204
:100F30000260E248426822F470224260426842F451
:100F400030224260026822F00F020260026842F022
:100F50000B0202604FF020408161C161C0F81C119A
:100F6000816941F480518161816941F480418161ED
:100F7000816941F010018161C169C161C16941F0BC
:100F80000101C161C16941F47061C161D0F81C11F6
:100F9000C0F81C11D0F81C11C0F81C11D0F81C119D
:100FA00041F44071C0F81C11816941F00101816177
:100FB000322003F05DF9002002F0B0FEC049C14DBF
:100FC00049F24139AC1C888046F6040745F2103AD4
:100FD00045F210564FF6FF78FF2804D3404502D063
:100FE000B0F5134F6DD1D320288002F08DFE88809C
:100FF00002F08AFE888002F087FE08EA002042465E
:10100000888002F081FE8B8818438880484558D03C
:10101000BF20288002F078FE888002F075FE88806C
:1010200002F072FE888002F06FFE02EA00208880E3
:1010300002F06AFE8B8818438880B84241D0D420E1
:10104000288002F061FE888002F05EFE888002F057
:101050005BFE02EA0020888002F056FE8B8818436F
:10106000888050452DD04FF45A40288002F04CFE25
:1010700088804FF45B40288002F046FE02EA0020A0
:1010800088804FF45C40288002F03EFE8B88184335
:101090008880B0F5004F7DD0B04212D0A1202880CA
:1010A00002F032FE888002F02FFE02EA00208880E3
:1010B00002F02AFE8A881043A0F5AE428880613A89
:1010C00069D080B2484567D1CF2028800020208099
:1010D000C120208030202080ED20288064202080C6
:1010E000032020801220208081202080E82028807A
:1010F00085202080102020807A202080CB2028800E
:10110000392020802C202080002020803420208046
:1011100002202080F720288020202080EA202880BC
:10112000002020802080C02028801B202080C1201B
:10113000288001202080C520288030202080208029
:10114000C7202880B7202080362028804820208093
:101150003A20288055202080B1202880002020803F
:101160001A202080B62028800A202080A2202080FB
:10117000F220288000202080262028800120208046
:10118000E02028800F2020802A2020802820208016
:10119000082002E04DE047E04DE020800E20208056
:1011A0000820208054202080A920208043202080F7
:1011B0000A2020800F202080002020802080208096
:1011C0002080E1202880002020801520208017200A
:1011D00020800720208011202080062020802B20C6
:1011E0002080562020803C20208005202080102058
:1011F00020800F2020803F20208020800F20208012
:101200002B202880002020802080012020803F206B
:1012100020802A2028800020208020802080EF202D
:1012200020801120288086E041F66310888002F03B
:10123000E2BC8E80FEE3B8427ED1112028801420CB
:1012400003F016F8D020288007202080422020803C
:101250001D202080D1202880002020801A2020807E
:1012600009202080D2202880012020802220208078
:10127000C0202880102020803B202080002020805B
:101280000220208011202080C5202880032020807B
:10129000C820288000202080252020802120208038
:1012A000052011E000100240000C01400414014030
:1012B00000F0FF00BB0B00BB041801400020014000
:1012C00018000020FE07006C2080002020800A20EB
:1012D00020806520208025202080772020805020BD
:1012E00020800F20208000202080F82028800120EE
:1012F0002080FE20288000202080022020802020C6
:10130000288036202880082020803A2028805520F8
:1013100020802B2028800020208020800120208019
:101320003F2020802A20288000202080208001204B
:101330002080DF20208000E005E0782002F098FF88
:10134000292001F02FBC50457ED1ED2028800120BE
:101350002080FE202080EE202880DE20208021209A
:101360002080F120288001202080DF20288010208C
:101370002080C42028808F202080C6202880002044
:101380002080E220208020802080BF202880AA208A
:101390002080B02028800D202080002020800D207B
:1013A0002080002020801120208000202080192013
:1013B00020800020208021202080002020802D20DF
:1013C0002080002020803D202080002020805D2083
:1013D0002080002020805D20208000202080B120FF
:1013E000288080202080002020808B2020800020EA
:1013F00020809620208000202080B220288000209D
:101400002080208002202080002020800320208057
:1014100000202080B3202880002020802080208091
:1014200020802080208020802080208020802080BC
:1014300020802080208020802080208020802080AC
:1014400020802080208000E0FEE320802080B420E7
:1014500028808B2020800020208096202080002063
:101460002080A120208000202080B520288002201C
:101470002080002020800320208000202080042065
:10148000208000202080B62028800020208020801E
:10149000B72028800020208020803F20208000204E
:1014A00020805E202080002020806420208000207A
:1014B00020808C20208000202080AC2020800020F4
:1014C0002080DC20208000202080702020800020D0
:1014D00020809020208000202080EB202080002091
:1014E0002080DC20208000202080B8202880002060
:1014F00020802080208020802080208020802080EC
:10150000BA20288024202080002020802080208075
:10151000C12028802020208000202080542020808E
:1015200000202080FF20208000202080C2202880F2
:101530000A2020800020208004202080002020809D
:10154000C32028803C202080002020803A2020805A
:10155000002020803920208000202080372020801B
:10156000002020803C202080002020803620208009
:101570000020208032202080002020802F2020800A
:10158000002020802C202080002020802920208006
:101590000020208026202080002020802420208001
:1015A00000202080242020800020208023202080F4
:1015B000002020803C2020800020208036202080B9
:1015C0000020208032202080002020802F202080BA
:1015D000002020802C2020800020208029202080B6
:1015E00000202080262020800020208024202080B1
:1015F00000202080242020800020208023202080A4
:1016000000202080C42028806220208000202080AC
:101610000520208000202080842020800020208041
:10162000F0202080002020801820208000202080B2
:10163000A4202080002020801820208000202080EE
:1016400050202080002020800C202080002020803E
:1016500017202080002020809520208000202080DE
:10166000F320208000202080E620208000202080A1
:10167000C520288032202080002020804420208027
:10168000002020806520208000202080762020807F
:10169000002020808820208000202080C6202880F4
:1016A0002020208000202080172020800020208003
:1016B0000120208000202080C7202880002020805A
:1016C000208020802080C82028800020208020804A
:1016D00020802080C9202880002020802080208039
:1016E00020802080208020802080208020802080FA
:1016F00020802080208020802080E02028801620EC
:101700002080002020801C2020800020208021209C
:10171000208000202080362020800020208046204D
:101720002080002020805220208000202080642003
:101730002080002020807A202080002020808B20A4
:101740002080002020809920208000202080A82058
:10175000208000202080B920208000202080C4200C
:10176000208000202080CA20208000202080D220DD
:10177000208000202080D920208000202080E020B0
:10178000208000202080F320208000202080E12085
:10179000288016202080002020801C20208000200F
:1017A00020802220208000202080362020800020E1
:1017B0002080452020800020208052202080002092
:1017C000208064202080002020807A20208000203B
:1017D00020808B20208000202080992020800020E5
:1017E0002080A820208000202080B9202080002098
:1017F0002080C420208000202080CA20208000205B
:101800002080D220208000202080D820208000202E
:101810002080E020208000202080F32020800020F5
:101820002080E220288005202080002020800B20BE
:101830002080002020801B20208000202080342059
:1018400020800020208044202080002020804F2005
:1018500020800020208061202080002020807920AE
:101860002080002020808820208000202080972059
:10187000208000202080A620208000202080B7200B
:10188000208000202080C220208000202080C720CF
:10189000208000202080D120208000202080D620A1
:1018A000208000202080DD20208000202080F32068
:1018B000208000202080E320288005202080002038
:1018C00020800A202080002020801C2020800020F2
:1018D0002080332020800020208044202080002091
:1018E0002080502020800020208062202080002046
:1018F00020807820208000202080882020800020E8
:1019000020809720208000202080A620208000209A
:101910002080B720208000202080C220208000204E
:101920002080C720208000202080D120208000201F
:101930002080D520208000202080DD2020800020F5
:101940002080F320208000202080E42028800120B7
:101950002080002020800120208000202080022084
:101960002080002020802A202080002020803C2011
:101970002080002020804B202080002020805D20BF
:10198000208000202080742020800020208084205F
:101990002080002020809320208000202080A22012
:1019A000208000202080B320208000202080BE20C6
:1019B000208000202080C420208000202080CD2096
:1019C000208000202080D320208000202080DD2067
:1019D000208000202080F320208000202080E5202F
:1019E00028800020208020802080208002202080ED
:1019F0000020208029202080002020803C20208082
:101A0000002020804B202080002020805D2020802E
:101A100000202080742020800020208084202080CE
:101A2000002020809320208000202080A220208081
:101A3000002000E039E12080B320208000202080B9
:101A4000BE20208000202080C42020800020208014
:101A5000CD20208000202080D320208000202080E6
:101A6000DC20208000202080F320208000202080A7
:101A7000E620288011202080002020803420208033
:101A8000002020805620208000202080762020808A
:101A90000020208077202080002020806620208069
:101AA0000020208088202080002020809920208015
:101AB00000202080BB2020800020208099202080D2
:101AC000002020806620208000202080552020805B
:101AD000002020805520208000202080452020806C
:101AE000002020804320208000202080442020806F
:101AF00000202080E72028803220208000202080C5
:101B0000552020800020208076202080002020800A
:101B100066202080002020806720208000202080F8
:101B200067202080002020808720208000202080C7
:101B30009920208000202080BB2020800020208051
:101B40009920208000202080772020800020208085
:101B500044202080002020805620208000202080EB
:101B6000232020800020208033202080002020801F
:101B70004520208000202080E82028800020208030
:101B80002080992020800020208087202080002035
:101B90002080882020800020208077202080002046
:101BA0002080662020800020208088202080002047
:101BB0002080AA20208000202080BB2020800020C0
:101BC0002080992020800020208066202080002016
:101BD000208055202080002020805520208000205B
:101BE000208044202080002020804420208000206D
:101BF00020805520208000202080E9202880AA20F5
:101C0000208000202080208020802880AA20208022
:101C1000CF202880002020802080208020802080ED
:101C200020802080208020802080208020802080B4
:101C30002080208020802080F020288000202080AC
:101C400050202080002000E02DE020802080208097
:101C5000F320288000202080F92028800620208082
:101C60001020208029202080002020803A202880F9
:101C70005520208011202880642002F0F9FA2920C4
:101C80002880352028800020208051202880FF20B7
:101C90002080532028802C202080552028808220DE
:101CA00020802C20FEE3B0427ED14FF470435521BA
:101CB000184602F06FFA4FF20104AA21204602F002
:101CC00069FA661C5221304602F064FAA71C08210A
:101CD000384602F05FFA4FF204090121484602F04B
:101CE00059FA0D214FF4304002F054FA0D214BF215
:101CF000010002F04FFA0D214BF2020002F04AFA05
:101D00004FF4364A3421504602F044FA34214BF263
:101D1000016002F03FFA34214BF2026002F03AFA1D
:101D20004FF4314B0D21584602F034FA0D214BF29D
:101D3000011002F02FFA0D214BF2021002F02AFAE4
:101D400034214FF4374002F025FA34214BF2017070
:101D500002F020FA34214BF2027002F01BFA00214B
:101D60004FF4324002F016FA00214BF2012002F04B
:101D700011FA00214BF2022002F00CFA24214FF458
:101D8000384002F007FA24214BF6010002F002FA73
:101D900024214BF6020002F0FDF901214FF43F40EF
:101DA00002F0F8F90F2100E0FEE34FF4334002F0B7
:101DB000F1F90F214BF2013002F0ECF90F214BF257
:101DC000023002F0E7F934214FF4394002F0E2F931
:101DD00034214BF6011002F0DDF934214BF60210EC
:101DE00002F0D8F908214FF4354002F0D3F9082168
:101DF0004BF2015002F0CEF908214BF2025002F0F2
:101E0000C9F903214FF4424002F0C4F924214FF4F0
:101E10003A4002F0BFF924214BF6012002F0BAF952
:101E200024214BF6022002F0B5F900214FF43C408A
:101E300002F0B0F978214BF6014002F0ABF9002135
:101E40004BF6024002F0A6F900214FF43D4002F0AB
:101E5000A1F978214BF6015002F09CF900214BF6D4
:101E6000025002F097F900214FF43E4002F092F93F
:101E700064214BF6016002F08DF900214FF45140CE
:101E800002F088F933214DF2011002F083F90021AC
:101E90004DF2021002F07EF934214DF2031002F0EF
:101EA00079F900214DF2041002F074F93A214DF253
:101EB000051002F06FF900214DF2061002F06AF9E8
:101EC0004A214DF2071002F065F900214DF2081089
:101ED00002F060F95C214DF2091002F05BF900217B
:101EE0004DF20A1002F056F981214DF20B1002F06A
:101EF00051F900214DF20C1002F04CF9A6214DF2DF
:101F00000D1002F047F900214DF20E1002F042F9D7
:101F1000E5214DF20F1002F03DF901214DF21010B4
:101F200002F038F913214DF2111002F033F90121BA
:101F30004DF2121002F02EF954214DF2131002F05E
:101F400029F901214DF2141002F024F982214DF2F9
:101F5000151002F01FF901214DF2161002F01AF9C6
:101F6000CA214DF2171002F015F902214DF2181096
:101F700002F010F900214DF2191002F00BF90221C4
:101F80004DF21A1002F006F901214DF21B1002F079
:101F900001F902214DF21C1002F0FCF834214DF23F
:101FA0001D1002F0F7F802214DF21E1002F0F2F8B7
:101FB00067214DF21F1002F0EDF802214DF22010C2
:101FC00002F0E8F884214DF2211002F0E3F802213A
:101FD0004DF2221002F0DEF8A4214DF2231002F09F
:101FE000D9F802214DF2241002F0D4F8B7214DF2B5
:101FF000251002F0CFF802214DF2261002F0CAF8A7
:10200000CF214DF2271002F0C5F802214DF2281021
:1020100002F0C0F8DE214DF2291002F0BBF80221D7
:102020004DF22A1002F0B6F8F2214DF22B1002F018
:10203000B1F802214DF22C1002F0ACF8FE214DF265
:102040002D1002F0A7F803214DF22E1002F0A2F895
:1020500010214DF22F1002F09DF803214DF23010A7
:1020600002F098F833214DF2311002F093F8032179
:102070004DF2321002F08EF86D214DF2331002F065
:1020800089F800214FF4524002F084F833214DF2D8
:10209000012002F07FF800214DF2022002F07AF8D0
:1020A00034214DF2032002F075F800214DF2042096
:1020B00002F070F83A214DF2052002F06BF8002191
:1020C0004DF2062002F066F84A214DF2072002F098
:1020D00061F800214DF2082002F05CF85C214DF21D
:1020E000092002F057F800214DF20A2002F052F8C0
:1020F00081214DF20B2002F04DF800214DF20C2011
:1021000002F048F8A6214DF20D2002F043F800211C
:102110004DF20E2002F03EF8E5214DF20F2002F0C4
:1021200039F801214DF2102002F034F813214DF25C
:10213000112002F02FF801214DF2122002F02AF8AE
:1021400054214DF2132002F025F801214DF2142004
:1021500002F020F882214DF2152002F01BF8012137
:102160004DF2162002F016F8CA214DF2172002F0A7
:1021700011F802214DF2182002F00CF800214DF266
:10218000192002F007F802214DF21A2002F002F89D
:1021900001214DF21B2001F0FDFF02214DF21C2018
:1021A00001F0F8FF34214DF21D2001F0F3FF022170
:1021B0004DF21E2001F0EEFF67214DF21F2001F0CD
:1021C000E9FF02214DF2202001F0E4FF84214DF2CD
:1021D000212001F0DFFF02214DF2222001F0DAFF81
:1021E000A4214DF2232001F0D5FF02214DF224203D
:1021F00001F0D0FFB7214DF2252001F0CBFF0221E5
:102200004DF2262001F0C6FFCF214DF2272001F02C
:10221000C1FF02214DF2282001F0BCFFDE214DF26A
:10222000292001F0B7FF02214DF22A2001F0B2FF70
:10223000F2214DF22B2001F0ADFF02214DF22C20B6
:1022400001F0A8FFFE214DF22D2001F0A3FF032194
:102250004DF22E2001F09EFF10214DF22F2001F0B3
:1022600099FF03214DF2302001F094FF33214DF20C
:10227000312001F08FFF03214DF2322001F08AFF5F
:102280006D214DF2332001F085FF00214FF45340C2
:1022900001F080FF33214DF2013001F07BFF00217E
:1022A0004DF2023001F076FF34214DF2033001F09F
:1022B00071FF00214DF2043001F06CFF3A214DF224
:1022C000053001F067FF00214DF2063001F062FF9A
:1022D0004A214DF2073001F05DFF00214DF2083038
:1022E00001F058FF5C214DF2093001F053FF00214D
:1022F0004DF20A3001F04EFF81214DF20B3001F01A
:1023000049FF00214DF20C3001F044FFA6214DF2AF
:102310000D3001F03FFF00214DF20E3001F03AFF89
:10232000E5214DF20F3001F035FF01214DF2103063
:1023300001F030FF13214DF2113001F02BFF01218C
:102340004DF2123001F026FF54214DF2133001F00E
:1023500021FF01214DF2143001F01CFF82214DF2CA
:10236000153001F017FF01214DF2163001F012FF78
:10237000CA214DF2173001F00DFF02214DF2183045
:1023800001F008FF00214DF2193001F003FF022196
:102390004DF21A3001F0FEFE01214DF21B3001F02A
:1023A000F9FE02214DF21C3001F0F4FE34214DF211
:1023B0001D3001F0EFFE02214DF21E3001F0EAFE69
:1023C00067214DF21F3001F0E5FE02214DF2203071
:1023D00001F0E0FE84214DF2213001F0DBFE02210C
:1023E0004DF2223001F0D6FEA4214DF2233001F04F
:1023F000D1FE02214DF2243001F0CCFEB7214DF286
:10240000253001F0C7FE02214DF2263001F0C2FE58
:10241000CF214DF2273001F0BDFE02214DF22830D0
:1024200001F0B8FEDE214DF2293001F0B3FE0221A9
:102430004DF22A3001F0AEFEF2214DF22B3001F0C8
:10244000A9FE02214DF22C3001F0A4FEFE214DF236
:102450002D3001F09FFE03214DF22E3001F09AFE47
:1024600010214DF22F3001F095FE03214DF2303056
:1024700001F090FE33214DF2313001F08BFE03214B
:102480004DF2323001F086FE6D214DF2333001F015
:1024900081FE00214FF4544001F07CFE33214DF2C7
:1024A000014000E07EE301F075FE00214DF20240A4
:1024B00001F070FE34214DF2034001F06BFE00216B
:1024C0004DF2044001F066FE3A214DF2054001F064
:1024D00061FE00214DF2064001F05CFE4A214DF202
:1024E000074001F057FE00214DF2084001F052FE76
:1024F0005C214DF2094001F04DFE00214DF20A40F1
:1025000001F048FE81214DF20B4001F043FE002115
:102510004DF20C4001F03EFEA6214DF20D4001F0BF
:1025200039FE00214DF20E4001F034FEE5214DF25E
:102530000F4001F02FFE01214DF2104001F02AFE64
:1025400013214DF2114001F025FE01214DF2124000
:1025500001F020FE54214DF2134001F01BFE012139
:102560004DF2144001F016FE82214DF2154001F0AB
:1025700011FE01214DF2164001F00CFECA214DF270
:10258000174001F007FE02214DF2184001F002FE53
:1025900000214DF2194001F0FDFD02214DF21A40DB
:1025A00001F0F8FD012100E0FEE24DF21B4001F0D8
:1025B000F1FD02214DF21C4001F0ECFD34214DF201
:1025C0001D4001F0E7FD02214DF21E4001F0E2FD49
:1025D00067214DF21F4001F0DDFD02214DF2204048
:1025E00001F0D8FD84214DF2214001F0D3FD0221FC
:1025F0004DF2224001F0CEFDA4214DF2234001F026
:10260000C9FD02214DF2244001F0C4FDB7214DF275
:10261000254001F0BFFD02214DF2264001F0BAFD38
:10262000CF214DF2274001F0B5FD02214DF22840A7
:1026300001F0B0FDDE214DF2294001F0ABFD022199
:102640004DF22A4001F0A6FDF2214DF22B4001F09F
:10265000A1FD02214DF22C4001F09CFDFE214DF226
:102660002D4001F097FD03214DF22E4001F092FD27
:1026700010214DF22F4001F08DFD03214DF230402D
:1026800001F088FD33214DF2314001F083FD03213B
:102690004DF2324001F07EFD6D214DF2334001F0EC
:1026A00079FD00214FF4554001F074FD33214DF2C6
:1026B000015001F06FFD00214DF2025001F06AFD62
:1026C00034214DF2035001F065FD00214DF204501C
:1026D00001F060FD3A214DF2055001F05BFD002153
:1026E0004DF2065001F056FD4A214DF2075001F01F
:1026F00051FD00214DF2085001F04CFD5C214DF2DE
:10270000095001F047FD00214DF20A5001F042FD51
:1027100081214DF20B5001F03DFD00214DF20C5096
:1027200001F038FDA6214DF20D5001F033FD0021DE
:102730004DF20E5001F02EFDE5214DF20F5001F04B
:1027400029FD01214DF2105001F024FD13214DF21D
:10275000115001F01FFD01214DF2125001F01AFD40
:1027600054214DF2135001F015FD01214DF214508A
:1027700001F010FD82214DF2155001F00BFD0121F9
:102780004DF2165001F006FDCA214DF2175001F02E
:1027900001FD02214DF2185001F0FCFC00214DF228
:1027A000195001F0F7FC02214DF21A5001F0F2FC31
:1027B00001214DF21B5001F0EDFC02214DF21C50A5
:1027C00001F0E8FC34214DF21D5001F0E3FC022140
:1027D0004DF21E5001F0DEFC67214DF21F5001F05A
:1027E000D9FC02214DF2205001F0D4FC84214DF29D
:1027F000215001F0CFFC02214DF2225001F0CAFC21
:10280000A4214DF2235001F0C5FC02214DF22450C9
:1028100001F0C0FCB7214DF2255001F0BBFC0221B4
:102820004DF2265001F0B6FCCF214DF2275001F0B9
:10283000B1FC02214DF2285001F0ACFCDE214DF23A
:10284000295001F0A7FC02214DF22A5001F0A2FC10
:10285000F2214DF22B5001F09DFC02214DF22C5043
:1028600001F098FCFE214DF22D5001F093FC032164
:102870004DF22E5001F08EFC10214DF22F5001F040
:1028800089FC03214DF2305001F084FC33214DF2DC
:10289000315001F07FFC03214DF2325001F07AFCFF
:1028A0006D214DF2335001F075FC00214FF456407C
:1028B00001F070FC33214DF2016001F06BFC00214E
:1028C0004DF2026001F066FC34214DF2036001F02C
:1028D00061FC00214DF2046001F05CFC3A214DF2F4
:1028E000056001F057FC00214DF2066001F052FC3A
:1028F0004A214DF2076001F04DFC00214DF20860C5
:1029000001F048FC5C214DF2096001F043FC00211C
:102910004DF20A6001F03EFC81214DF20B6001F0A6
:1029200039FC00214DF20C6001F034FCA6214DF27F
:102930000D6001F02FFC00214DF20E6001F02AFC29
:10294000E5214DF20F6001F025FC01214DF21060F0
:1029500001F020FC13214DF2116001F01BFC01215C
:102960004DF2126001F016FC54214DF2136001F09B
:1029700011FC01214DF2146001F00CFC82214DF29A
:10298000156001F007FC01214DF2166001F002FC18
:10299000CA214DF2176001F0FDFB02214DF21860D3
:1029A00001F0F8FB00214DF2196001F0F3FB022168
:1029B0004DF21A6001F0EEFB01214DF21B6001F0B7
:1029C000E9FB02214DF21C6001F0E4FB34214DF2E1
:1029D0001D6001F0DFFB02214DF21E6001F0DAFB09
:1029E00067214DF21F6001F0D5FB02214DF22060FE
:1029F00001F0D0FB84214DF2216001F0CBFB0221DC
:102A00004DF2226001F0C6FBA4214DF2236001F0DB
:102A1000C1FB02214DF2246001F0BCFBB7214DF255
:102A2000256001F0B7FB02214DF2266001F0B2FBF8
:102A3000CF214DF2276001F0ADFB02214DF228605D
:102A400001F0A8FBDE214DF2296001F0A3FB022179
:102A50004DF22A6001F09EFBF2214DF22B6001F055
:102A600099FB02214DF22C6001F094FBFE214DF206
:102A70002D6001F08FFB03214DF22E6001F08AFBE7
:102A800010214DF22F6001F085FB03214DF23060E3
:102A900001F080FB33214DF2316001F07BFB03211B
:102AA0004DF2326001F076FB6D214DF2336001F0A2
:102AB00071FB5521184601F06DFBAA21204601F05B
:102AC00069FB5221304601F065FB0821384601F0D0
:102AD00061FB0021484601F05DFBCC21584601F026
:102AE00059FB00214BF2011001F054FB0521504627
:102AF00001F050FB70214FF4374001F04BFB702187
:102B00004BF2017001F046FB01214FF4384001F017
:102B100041FB03214BF6010001F03CFB03214BF686
:102B2000020001F037FB03214BF6030001F032FBFA
:102B300002214FF43C4001F02DFB00214BF60140F7
:102B400001F028FB00214BF6024001F023FBD021CD
:102B50004FF4494001F01EFB02214CF6011001F038
:102B600019FB50214CF6021001F014FB50214CF6D9
:102B7000031001F00FFB50214CF6041001F00AFB8A
:102B800000214FF4545001F005FB55214FF46850DB
:102B900001F000FB4FF488502880782001F076FB8C
:102BA0004FF424502880FCE3A0F513414FF48076C5
:102BB0004FF4E06A40F2022B4FF4274925392ED01A
:102BC000A0F5134140F2077728397CD0A0F51341D6
:102BD0004FF48879203977D0A0F51341313974D07A
:102BE000A0F5A841083971D0A0F5A8514FF440795B
:102BF00005396CD0A0F53541053969D0A0F54541BE
:102C0000053966D0A0F58A4131397DD0A0F58A41D9
:102C100035397AD0A0F5C851633977D0C3E747F684
:102C2000F001E52001F0B6FA3146012001F0B2FAD8
:102C30005146022001F0AEFA41F23001032001F0CA
:102C4000A9FA0021042001F0A5FA5946082001F054
:102C5000A1FA0021092001F09DFA00210A2001F0CB
:102C600099FA00210C2001F095FA00210D2001F0C5
:102C700091FA00210F2001F08DFA0021102001F0BF
:102C800089FA0721112001F085FA0021122001F0B4
:102C900081FA0021132001F07DFA0021072001F0C4
:102CA00079FA41F29061102001F074FA40F2272184
:102CB000112001F06FFA9D21122001F06BFA4FF400
:102CC000C851132006E082E03EE1E3E1B9E255E3BA
:102CD000FDE3FDE301F05EFA2521292001F05AFA17
:102CE0000D212B2001F056FA0721302001F052FA75
:102CF00040F20331312001F04DFA0321322001F07E
:102D000049FA40F2062102E0FEE3FEE3FEE335204D
:102D100001F040FA0821362001F03CFA40F2064169
:102D2000372001F037FA4FF44171382001F032FAC0
:102D30000721392001F02EFA40F202613C2001F017
:102D400029FA08213D2001F025FA0021502001F048
:102D500021FAEF21512001F01DFA0021522001F04B
:102D600019FA40F23F11532001F014FA494660204D
:102D700001F010FA0121612001F00CFA00216A2013
:102D800001F008FA0021802001F004FA00218120DE
:102D900001F000FA0021822001F0FCF900218320DB
:102DA00001F0F8F90021842001F0F4F900218520D8
:102DB00001F0F0F91021902001F0ECF94FF4C0611E
:102DC000922001F0E7F940F233110720FEE341F2CF
:102DD0008F01EC2001F0DEF941F23421EF2001F007
:102DE000D9F93146012001F0D5F95146022001F010
:102DF000D1F941F23001032001F0CCF90021042087
:102E000001F0C8F95946082001F0C4F90021092051
:102E100001F0C0F900210A2001F0BCF901210C20C9
:102E200001F0B8F900210D2001F0B4F900210F20C4
:102E300001F0B0F90021102001F0ACF907211120B8
:102E400001F0A8F90021122001F0A4F900211320BB
:102E500001F0A0F90121072001F09CF9322001F0D6
:102E600007FA41F29041102001F094F940F2272135
:102E7000112001F08FF9322001F0FAF98A21122095
:102E800001F088F9322001F0F3F94FF4D05113200A
:102E900001F080F90621292001F07CF90D212B2079
:102EA00001F078F9322001F0E3F90021202001F04F
:102EB00071F90021212001F06DF9322001F0D8F9DB
:102EC0000021302001F066F940F20461312001F068
:102ED00061F940F20531322001F05CF90021352022
:102EE00001F058F940F60941362001F053F94FF44A
:102EF0000171372001F04EF940F20131382001F024
:102F000049F93946392001F045F900213C2001F00A
:102F100041F940F60A213D2001F03CF9322001F050
:102F2000A7F90021502001F035F9EF21512001F0DF
:102F300031F90021522001F02DF940F23F115320C8
:102F400001F028F9494651E10021084601F022F933
:102F50003146012001F01EF95146022001F01AF914
:102F600041F23001032001F015F90021042001F0A5
:102F700011F95946082001F00DF90021092001F04E
:102F800009F900210A2001F005F901210C2001F0C6
:102F900001F900210D2001F0FDF800210F2001F0C2
:102FA000F9F8322001F064F940F20111072001F034
:102FB000F1F8322001F05CF94FF48651102001F055
:102FC000E9F80721112001F0E5F84B4649461220A7
:102FD00001F0E0F84FF43061132001F0DBF800213C
:102FE000292001F0D7F844F210012B2001F0D2F88B
:102FF0000021502001F0CEF8EF21512001F0CAF855
:103000000021522001F0C6F840F23F11532001F098
:10301000C1F84FF41C51602001F0BCF8012161207F
:1030200001F0B8F800216A2001F0B4F800218020F6
:1030300001F0B0F80021812001F0ACF800218220DD
:1030400001F0A8F80021832001F0A4F800218420D9
:1030500001F0A0F80021852001F09CF810219020BB
:1030600001F098F80021922001F094F801219320BA
:1030700001F090F81946952001F08CF80021972076
:1030800001F088F80021982001F084F840F27311D3
:10309000072086E341F21401E72001F07BF8314676
:1030A000012001F077F84FF40071022001F072F86E
:1030B00041F23801032001F06DF85946082001F073
:1030C00069F80021092001F065F800210A2001F0CB
:1030D00061F800210C2001F05DF800210D2001F0C5
:1030E00059F800210F2001F055F80021102001F0BF
:1030F00051F80721112001F04DF80021122001F0B4
:1031000049F80021132001F045F8C82001F0B0F87B
:1031100041F29061102001F03DF840F2272111208A
:1031200001F038F8322001F0A3F80C21122001F050
:1031300031F8322001F09CF84FF40061132001F0C7
:1031400029F81121292001F025F80B212B2001F06D
:1031500021F8322001F08CF80021202001F01AF82B
:1031600040F23F131946212001F014F800213020CD
:1031700001F010F84FF483742146312001F00AF871
:103180000021322001F006F84FF40171352001F0E2
:1031900001F841F20A61362000F0FCFF3946372081
:1031A00000F0F8FF2146382000F0F4FF39463920BE
:1031B00000F0F0FF40F202413C2000F0EBFF40F64F
:1031C0000F413D2000F0E6FF0021502000F0E2FF1B
:1031D000EF21512000F0DEFF0021522000F0DAFF45
:1031E0001946532000F0D6FF4FF41C51602000F028
:1031F000D1FF0121612000F0CDFF00216A2000F005
:10320000C9FF0021802000F0C5FF0021812000F0CF
:10321000C1FF0021822000F0BDFF0021832000F0CB
:10322000B9FF0021842000F0B5FF0021852000F0C7
:10323000B1FF1021902000F0ADFF4FF4C06192204B
:10324000FEE33146012000F0A5FF5146022000F0C8
:10325000A1FF41F23001032000F09CFF0021042077
:1032600000F098FF40F20721082000F093FF0021B2
:10327000092000F08FFF00210A2000F08BFF0021C1
:103280000C2000F087FF00210D2000F083FF0021BB
:103290000F2000F07FFF142000F0EAFF41F2B06140
:1032A000102000F077FF0121112000F073FF0121B1
:1032B000172000F06FFF4FF49C71122000F06AFF9E
:1032C0004FF40061132000F065FF0921292000F070
:1032D00061FF09212A2000F05DFF0021A42000F0F9
:1032E00059FF0021502000F055FFEF21512000F040
:1032F00051FF0021522000F04DFF40F23F115320BA
:1033000000F048FF4FF41C51602000F043FF012102
:10331000612000F03FFF00216A2000F03BFF002108
:10332000802000F037FF0021812000F033FF0021D2
:10333000822000F02FFF0021832000F02BFF0021CE
:10334000842000F027FF0021852000F023FF1321B7
:10335000902000F01FFF0021922000F01BFF0321AE
:10336000932000F017FF4946952000F013FF40F22C
:103370007311072000F00EFF322011E10021072019
:1033800000F008FF322000F073FF4FF48E7112201E
:1033900000F000FF0121A42000F0FCFE0F21082016
:1033A00000E07FE300F0F6FE08210A2000F0F2FEC4
:1033B00008210D2000F0EEFE3946302000F0EAFE34
:1033C0000721312000F0E6FE40F20361322000F0D8
:1033D000E1FE54465146332000F0DCFE59463420CD
:1033E00000F0D8FE0221352000F0D4FE41F60F7126
:1033F000362000F0CFFE3946372000F0CBFE00210A
:10340000382000F0C7FE0021392000F0C3FE394605
:103410003A2000F0BFFE00213B2000F0BBFE072158
:103420003C2000F0B7FE00213D2000F0B3FE32202A
:1034300000F01EFF0121072000F0ACFE0121172043
:1034400000F0A8FE322000F013FF4FF4BD51102011
:1034500000F0A0FE40F21721112000F09BFE4FF477
:103460008F71122000F096FE4FF47061132000F06F
:1034700091FE00212A2000F08DFE0A21292000F073
:1034800089FE4FF49F71122000F084FE002150202D
:1034900000F080FEEF21512000F07CFE0021522040
:1034A00000F078FE40F23F11532000F073FE4FF41D
:1034B0001C51602000F06EFE0121612000F06AFEC8
:1034C00000216A2000F066FE0021802001E06AE011
:1034D00068E100F05FFE0021812000F05BFE00212A
:1034E000822000F057FE0021832000F053FE0021CF
:1034F000842000F04FFE0021852000F04BFE1321B8
:10350000902000F047FE02E016E2CCE273E3494669
:10351000922000F03FFE0521932000F03BFE0021A9
:10352000952000F037FE0021972000F033FE0021A7
:10353000982000F02FFE3146012000F02BFE21469E
:10354000022000F027FE41F23801032000F022FEA5
:103550000021042000F01EFE00210C2000F01AFEC5
:1035600000210F2000F016FE0021202000F012FEA6
:103570000021212000F00EFE2121072000F00AFE8C
:10358000142000F075FE6121072000F003FE1420D6
:1035900000F06EFE40F27311072000F0FBFD1420D6
:1035A00000F066FEA1E30021084600F0F3FD0021D3
:1035B000084600F0EFFD0021084600F0EBFD002179
:1035C000084600F0E7FD0121A42000E0E5E000F05E
:1035D000E1FD142000F04CFE4FF41C542146602005
:1035E00000F0D8FD5D465946082000F0D3FD4FF4A9
:1035F0000571302000F0CEFD43F21571312000F04E
:10360000C9FD40F20461322000F0C4FD40F61661AD
:10361000332000F0BFFD42F21121342000F0BAFD4A
:103620004FF4A851352000F0B5FD48F2075136207F
:1036300000F0B0FD41F20741372000F0ABFD41F250
:103640000341382000F0A6FD2021392000F0A2FD22
:103650001A21902000F09EFD0021102000F09AFD1C
:103660000721112000F096FD0021122000F092FDAC
:103670000021132000F08EFD142000F0F9FD4FF41E
:10368000E661102000F086FD40F23711112000F0B5
:1036900081FD142000F0ECFD4FF4DC71122000F0ED
:1036A00079FD142000F0E4FD4FF47061132000F068
:1036B00071FD80212A2000F06DFD4821292000F0B5
:1036C00069FD142000F0D4FD3146012000F062FDB8
:1036D0005146022000F05EFD41F23801032000F067
:1036E00059FD2946082000F055FD00210A2000F070
:1036F00051FD00210C2000F04DFD00210D2000F0B7
:1037000049FD30210E2000F045FD0021502000F041
:1037100041FDEF21512000F03DFD0021522000F03D
:1037200039FD40F23F11532000F034FD2146602066
:1037300000F030FD0121612000F02CFD00216A2005
:1037400000F028FD1121902000F024FD4FF4C0610D
:10375000922000F01FFD40F20241932000F01AFD7C
:103760000221942000F016FD142000F081FD0121BB
:10377000072000F00FFD142000F07AFD61210720E2
:1037800000F008FD40F27311072000F003FD002156
:10379000202000F0FFFC0021212000F0FBFC222172
:1037A00000207DE10021084600F0F4FC00210846DD
:1037B00000F0F0FC142000F05BFD0021084600F052
:1037C000E9FC0021084600F0E5FC0021084600F075
:1037D000E1FC0021084600F0DDFC0121A42000F0FE
:1037E000D9FC142000F044FD4FF41C51602000F07F
:1037F000D1FC40F60601082000F0CCFC40F2037337
:103800001946302000F0C6FC0121312000F0C2FC36
:103810000421322000F0BEFC4FF48171332000F00F
:10382000B9FC4C464946342000F0B4FC40F2031188
:10383000352000F0AFFC1F21362000F0ABFC19460C
:10384000372000F0A7FC0121382000F0A3FC042160
:10385000392000F09FFC1521902000F09BFC4FF4D4
:103860008261102000F096FC40F24721112000F008
:1038700091FC4FF4DE71122000F08CFC4FF460617B
:10388000132000F087FC782000F0F2FC3146012084
:1038900000F080FC4FF40071022000F07BFC41F24C
:1038A0003001032000F076FC08210A2000F072FCB1
:1038B00000210C2000F06EFC20210E2000F06AFC9C
:1038C00000210F2000F066FC0021202000F062FCA7
:1038D0000021212000F05EFC3D212A2000F05AFC4E
:1038E000142000F0C5FC2D21292000F053FC0021FC
:1038F000502000F04FFC4DF2EF01512000F04AFC47
:103900000021522000F046FC40F23F11532000F00D
:1039100041FC0021612000F03DFC00216A2000F004
:1039200039FC2146922000F035FC0521932000F05F
:1039300031FC3146FFF7ACBB0121002000F02AFC2E
:103940000A2000F095FC41F22861102000F022FCD2
:103950000E21122000F01EFC40F63921132000F049
:1039600019FC0A2000F084FC4021112000F012FC18
:103970005021152000F00EFC0A2000F079FC1E21D9
:10398000122000F007FC0A2000F072FC4FF4B15145
:10399000102000F0FFFB42F63921132000F0FAFB63
:1039A0000A2000F065FC3146012000F0F3FB494697
:1039B000022000F0EFFB41F23801032000F0EAFBA7
:1039C0005946082000F0E6FB08210A2000F0E2FB3F
:1039D0000021302000F0DEFB40F20241312000F0F7
:1039E000D9FB4FF48371322000F0D4FB40F2035135
:1039F000332000F0CFFB4FF48271342000F0CAFB7B
:103A000040F20131352000F0C5FB3946362000F088
:103A1000C1FB40F20531372000F0BCFB4FF40271CE
:103A2000382000F0B7FB40F60B71392000F0B2FBF4
:103A30000221412000F0AEFB4FF41C51602000E059
:103A4000D4E000F0A7FB0121612000F0A3FB4FF4BC
:103A50000471902000F09EFB4FF48571922000F0DD
:103A600099FB0421932000F095FB3146A02000F043
:103A700091FB0121072000F08DFB2121072000F0A0
:103A800089FB2321072000F085FB3321072000F06C
:103A900081FB40F23311072000F07CFB0021A020C5
:103AA00000F078FB21E13021152000F073FB10219C
:103AB0009A2000F06FFB2021112000F06BFB43F2F5
:103AC0002841102000F066FB0221122000F062FB6A
:103AD00041F23801132000F05DFB282000F0C8FB04
:103AE0001221084600F056FB282000F0C1FB43F2EB
:103AF0002041102000F04EFB43F23801132000F06B
:103B000049FB462000F0B4FB0021302000F042FBCE
:103B100040F20241312000F03DFB40F207313220FB
:103B200000F038FB4FF44171332000F033FB0421E7
:103B3000342000F02FFB40F20141352000F02AFB39
:103B40003946362000F026FB40F20531372000F0E0
:103B500021FB4FF4C2631946382000F01BFB1946C5
:103B6000392000F017FB3146012000F013FB4946D5
:103B7000022000F00FFB41F23001032000F00AFBAD
:103B800040F60801082000F005FB08210A2000F09B
:103B900001FB4FF41C51602000F0FCFA0121612070
:103BA00000F0F8FA4FF49F71902000F0F3FA3146DC
:103BB000922000F0EFFA3146932000F0EBFA4FF438
:103BC0004051A02000F0E6FA1021A32000F0E2FA14
:103BD0000121072000F0DEFA2121072000F0DAFAA7
:103BE0002321072000F0D6FA3321072000F0D2FA73
:103BF00040F233119EE6E22028801D202080022022
:103C0000208004202080642000F040FBE0202880F9
:103C1000012020800A2000F02BFBE02028800320D8
:103C200020800C2000F024FB012028800A2000F0D6
:103C30001FFBE62028802F202080FF20208020806E
:103C4000B020288020202080002020800320208099
:103C500040F21F3020800120208040F2DF102080C1
:103C600000202080B42028800420208040F21F40C3
:103C70002080002020802E20208000202080208096
:103C800020802080B6202880022020804FF40370FE
:103C900020800020208017202080152020800020F8
:103CA00020802080F0202880032020802920288068
:103CB000D020288000202080BE2028800520208061
:103CC000FE20208001202080002020802080208075
:103CD000B82028800320208001202080BA2028805E
:103CE00001202080642000F025F80020FCF7B8FFB8
:103CF00004490120C1F880014046BDE8F05FFCF7AF
:103D000079BF000000802142034808B50088ADF863
:103D10000000BDF8000008BD0008006C044910B5A3
:103D20000880052000F0B2FABDE81040FFF7ECBFB4
:103D3000FE07006C0C4A10B5BE211180941C0521B1
:103D4000218000F090FB4FF06632084B00F09EFBA4
:103D500000F05CFB208001202080FF2020800020DC
:103D60002080208010BD0000FE07006C66660440C5
:103D7000F0B5674C00232146A679898846F60402EF
:103D800041F66315012E01D02EB11DE091421BD0EA
:103D9000A94202D118E0A94216D1082814D2DFE8BE
:103DA00000F00406080A0C0E101206200CE0072092
:103DB0000AE0042008E0052006E0012004E00020DD
:103DC00002E0032000E00220A1F5134C45F2103779
:103DD00045F21056BCF1410C07D0914205D0B942D2
:103DE00003D0B14201D0A94275D1082812D2DFE830
:103DF00000F0110406080A0C0E1080230AE040238C
:103E000008E0C02306E0202304E0602302E0A023B2
:103E100000E0E023B14202D14FF4585000E03620D8
:103E2000B94205D0B14203D0A94201D043F0080302
:103E3000914201D143F00203194600F0ABF9A0888A
:103E4000A8420AD099062188628802D5914202D3FD
:103E500003E0914201D9228061802E498A1CB04240
:103E60006089088021D100231380431C0B8000232C
:103E70001380831C0B8023885B1E1D0A1580C01CC9
:103E80000880D8B21080A089088000231380431CCA
:103E90000B8000231380831C0B8063885B1E1C0A2D
:103EA0001480C01C0880D8B212E00020108010805E
:103EB0002088401E030A1380C0B21080A0890880A9
:103EC0000020108010806088401E010A1180C0B25E
:103ED0001080F0BDFFE7082812D2DFE800F00406EA
:103EE00008110A0C0E1030230AE0102308E02023EA
:103EF00006E0382304E0282302E0182300E008232A
:103F0000BDE8F040032043F4805100F043B90000C5
:103F100018000020FE07006C2DE9F04F4C4E0C46B7
:103F200001464FEA102C3046B588DFF828B1828967
:103F3000230A4089A5F513470BF1020A413F1CD023
:103F4000A5F5A647103F18D0B64696F806903688D5
:103F5000A5F5D047A6EB0108A8F10108043F13D04E
:103F6000A5F5C857633F23D0A5F5AA477646103F6D
:103F70004ED0B9F1010F60D061E05D46ABF80000B2
:103F80005046AAF800C00BE0B9F1010F01D11FFAA9
:103F900088F15D46ABF800000E0A5046AAF80060B2
:103FA000C9B201802A800380E1B20180BDE8F08FB0
:103FB000B9F1000F1DD0ABF800005046AAF800C0C0
:103FC000C9B2AAF80010761E310AAAF80010F1B2A0
:103FD0000180ABF800205046AAF80030E1B2AAF800
:103FE0000010BEF80210491E0A0AAAF80020C9B241
:103FF000DBE71FFA88F1ABF8000000265046AAF86C
:104000000060AAF800600E0AAAF80060C9B2DFE7F3
:10401000ABF80000AAF800C0401CABF80000C8B222
:10402000AAF80000ABF80020AAF80030521CABF848
:104030000020E0B2AAF80000B8E71FFA88F100F00B
:10404000A9F8B0892146BDE8F04F00F0A3B8000000
:1040500018000020FE07006C2DE9FF4F1D460C469E
:104060008A46580700D0012000EBD5006908484374
:10407000203A00F0FF09D0B20026DFF89CB0029091
:1040800045E00C2D12D0102D15D0182D41D10298DD
:10409000224900EBC00000BF01EB80004FF0000898
:1040A000875D38060CD51E4802880DE002981D4930
:1040B00000EB4000F0E71C49029801EB0010EDE72F
:1040C0000D9828B91648428821460098FCF762FEF0
:1040D0007806070E641CBBF80200A4B2A04218D9EF
:1040E000A4EB0A00A84209D100985446401C80B2B3
:1040F0000090BBF8001081420BD906E008F10100E6
:1041000000F0FF08B8F1080FCBD3761CF6B24E458D
:10411000B7D3BDE8FF8F000018000020FC50000856
:1041200014000020984600080C4B00082DE9F84FB9
:10413000044600F0FF0910190D46DDE90AB61FFA22
:1041400080F8581987B24FF0000A12E0444503D3B3
:1041500005EB0B004C4685B2BD420FD25B462946AB
:104160002046CDF800A0FFF777FF04EB5B0084B298
:10417000761C3278A2F120005E28E7D9BDE8F88FDE
:104180000248034900890880704700001800002099
:10419000FE07006C024A1080901C018070470000EE
:1041A000FE07006C054808B5816941F00401816192
:1041B000806900F00400009008BD0000001002407B
:1041C000FEE7FEE770477047FCF70CBA30B58FB0DA
:1041D00028216846FCF722F914210AA8FCF71EF9E9
:1041E00001210804CDE90010002402940225049165
:1041F000CDE907504FF4E01009906846FCF748FB02
:1042000008B172B6FEE70F20CDE90A054FF48060D1
:10421000CDE90C4002210AA80E94FCF76DFA0028A3
:1042200001D072B6FEE70FB030BD7047FEE7090758
:10423000090E002804DB00F1E02080F8001470472C
:1042400000F00F0000F1E02080F8141D70473038B6
:104250000A2801D2012070470020704710B504469B
:104260000420FCF7A5FC0148046010BD10000020EC
:1042700070B5054600244FF47A7603E0304600F02E
:1042800005F8641CAC42F9D370BD000070B54FF066
:10429000E024002265690949A36909684843A169C6
:1042A0009942FCD002D2A3EB010302E0A5EB010688
:1042B00033441A440B468242F1D370BD10000020F3
:1042C00086B0FCF797F9FFF781FFFFF76BFF00243B
:1042D0004820FFF7C3FFFCF7E5FD394F39484FF49D
:1042E00078453D80828838A102A8FBF793FF0DF145
:1042F00008084FF0180910264FF00C0A4FF47A7B8B
:104300000C2C0DD2DFE804F006093F414346494C2E
:104310004F5255584FF6FF7000E00020FCF76AFC42
:104320003D802CA1CDE900911823D22228211E2006
:10433000FFF7FCFE2BA0CDE900601023C822462128
:104340001E20FFF7F3FE2AA0CDE900601023C8224B
:104350005A211E20FFF7EAFECDE900681023C8228B
:104360006E211E20FFF7E2FE25A1CDE900A10C235E
:10437000C82282211E20FFF7D9FE641CE4B25846F1
:10438000FFF776FFBCE71F20C8E72846C6E74FF6D1
:104390001F00C3E74FF4FC60C0E747F6FF70BDE7BE
:1043A0004FF6E070BAE74FF60740B7E748F2304003
:1043B000B4E74CF21860B1E74BF64040AEE70000BE
:1043C00014000020180000204C43442049443A25A2
:1043D00030345800454C4954452053544D33322015
:1043E0005E5F5E005446544C434420544553540091
:1043F00041544F4D40414C49454E54454B000000FF
:10440000323031392F392F32370000004FEA115343
:10441000A3F58063D3F11E03A8BFD3F1200C08DB02
:104420004FF0004242EAC12252EA505232FA03F0FF
:10443000704709420BD4102BC4BF0020704703F50E
:10444000787CBCF1FF3F05D04FF0FF3070474FF054
:104450000000704770B500F0C3F800BF4992248097
:1044600000207047F0E7B0FA80F310FA03F10AD0A9
:10447000C3F11D0303F580634FEA41504FEA035235
:1044800002EBD12170474FF000007047DFF848C1C0
:1044900070B51CEA111E1EBF1CEA13159EEA0C0F14
:1044A00095EA0C0F00F06F8081EA030423EA4C13B5
:1044B0004EEAD47E21EA4C1141F4801143F480137A
:1044C000AE44A1FB024CA0FB0365AEF17F7E361922
:1044D00055EB0C05A1FB034C4CF10003A0FB021CA7
:1044E00016EB0C06654153F10003094218BF46F074
:1044F000010613F4007F0BD14FEA03314FEA053078
:10450000340341EA155140EA16506FF003020AE005
:104510004FEAC3214FEAC520F40241EA555140EA6F
:1045200056506FF0020202EB2E4201EB025585EA73
:10453000CE710AD05FEA440C18BF24F0004450F159
:10454000000041F1000120EAD47040F2FE7C624597
:1045500000D270BDA84214BF4FF080444FF04044D9
:10456000002E08BF0024BEF1806FA8BFA1F1C0419A
:10457000BDE8704080F282804FF0000001F1C04140
:1045800001F0004170479EEA0C0F0CEA131518BFAA
:1045900095EA0C0F06D04FF0000081EA030E0EF0F2
:1045A000004170BD00F01CF88900013E00F007B822
:1045B00000F009B84FEA430C5FEA5C5C08D081EA7E
:1045C000030100F05BB84FEA410C5FEA5C5CF6D196
:1045D0004FF00000014970470000FF070000F87F1E
:1045E0000EF1020E2EF0030E5EF8046B364205D477
:1045F000012A43EB030515F5001F12D8012841EBF2
:10460000010C1CF5001F0CD80ED14FEAD17C15F51A
:10461000001F0CEB4C0C0CF1020C08BF4CEBD37CD4
:1046200004E04FF0080C01E04FEAD37C0CEB4C05A2
:1046300026FA05F606F00706B6F1040C06D20EEBD4
:10464000860CBDE870404CF0010C6047DFE80CF0D0
:10465000090B02024FF000414FF00000A1F50021CC
:1046600070BD19461046012851EB010418BFD4F55E
:10467000001484BF002001F0004170BD0808A0F5BF
:1046800000114FEA310170470000000000000000F7
:1046900001020304060708090000000000000000F2
:1046A00000000000000000003F400000000000008B
:1046B00000003000400030004000000009000BC046
:1046C0003D000BC03D00090018C024407FE022409F
:1046D00031800000180024C01B000D803240018092
:1046E00003801C4027401C800740004010006000F1
:1046F00000000000000000000000000000001F801B
:10470000204040200000402020401F80000000008A
:10471000090006001F8006000900000004000400D4
:104720003F80040004000000001000600000000052
:104730000000000004000400040004000400000065
:10474000000000400000000000000000002001C048
:1047500006003800400000001F802040204020401C
:104760001F800000000010403FC00040000000001B
:1047700018C02140224024401840000010802040F2
:10478000244024401B80000002000D0011003FC0A7
:10479000014000003C80244024402440238000004D
:1047A0001F8024402440344003800000300020005B
:1047B00027C03800200000001B80244024402440F3
:1047C0001B8000001C0022C0224022401F800000ED
:1047D0000000000008400000000000000000000091
:1047E0000460000000000000000004000A00110046
:1047F000208040400900090009000900090000006C
:1048000000004040208011000A0004001800200031
:1048100023402400180000001F802040274029402A
:104820001F400000004007C039000F0001C00040D9
:1048300020403FC0244024401B8000001F802040B7
:10484000204020403080000020403FC020402040D9
:104850001F80000020403FC024402E4030C0000098
:1048600020403FC024402E00300000000F00108088
:10487000204022403380020020403FC0040004005A
:104880003FC02040204020403FC02040204000004A
:104890000060202020203FC02000200020403FC09A
:1048A00024400B0030C0204020403FC0204000404A
:1048B000004000C03FC03C0003C03C003FC00000BF
:1048C00020403FC00C4023003FC020001F802040FC
:1048D000204020401F80000020403FC02440240092
:1048E000180000001F802140214020E01FA0000090
:1048F00020403FC02440260019C0004018C024407A
:104900002440224031800000300020403FC0204041
:104910003000000020003F80004000403F80200029
:1049200020003E0001C0070038002000380007C00A
:104930003C0007C038000000204039C0060039C0E4
:10494000204000002000384007C038402000000010
:10495000304021C02640384020C000000000000048
:104960007FE0402040200000000070000C00038029
:10497000004000000000402040207FE000000000D8
:104980000000200040002000000000000010001087
:104990000010001000100010000000004000000097
:1049A00000000000000002800540054003C00040F8
:1049B00020003FC00440044003800000000003804A
:1049C00004400440064000000000038004402440EE
:1049D0003FC0004000000380054005400340000048
:1049E000000004401FC0244024402000000002E0DA
:1049F000055005500650042020403FC004400400EC
:104A000003C000400000044027C000400000000038
:104A100000100010041027E00000000020403FC0FC
:104A20000140070004C00440204020403FC0004037
:104A30000040000007C0040007C0040003C00000DD
:104A4000044007C00440040003C00040000003808D
:104A50000440044003800000041007F004500440A8
:104A600003800000000003800440045007F00010A1
:104A7000044007C00240040004000000000006409B
:104A80000540054004C00000000004001F800440F1
:104A900000400000040007800040044007C00040C0
:104AA0000400070004C0018006000400060001C0E5
:104AB000070001C006000000044006C0010006C057
:104AC000044000000410071004E001800600040008
:104AD0000000044005C00640044000000000000043
:104AE00004007BE040200000000000000000FFF018
:104AF00000000000000040207BE0040000000000F7
:104B00004000800040002000200040000000000025
:104B10000000000000000000000000000000000095
:104B200000001FCC000C0000000000000000080086
:104B3000300060000800300060000000022003FC2C
:104B40001E20022003FC1E200220000000000E1880
:104B500011043FFF10840C78000000000F00108447
:104B60000F3800C0077818840078000000780F84A0
:104B700010C411240E9800E40084000808006800A6
:104B800070000000000000000000000000000000B5
:104B9000000007E018182004400200000000400256
:104BA0002004181807E00000000000000240024046
:104BB00001800FF001800240024000000080008070
:104BC00000800FF800800080008000000001000DD0
:104BD000000E000000000000000000000000008047
:104BE0000080008000800080008000800000000CB9
:104BF000000C0000000000000000000000000006A3
:104C0000001800600180060018002000000007F076
:104C1000080810041004080807F000000000080449
:104C200008041FFC000400040000000000000E0C3B
:104C300010141024104411840E0C000000000C18F5
:104C400010041104110412880C700000000000E030
:104C50000320042408241FFC0024000000001F98E7
:104C6000108411041104108810700000000007F077
:104C700008881104110418880070000000001C004E
:104C8000100010FC13001C001000000000000E3883
:104C900011441084108411440E38000000000700F5
:104CA000088C10441044088807F000000000000041
:104CB0000000030C030C00000000000000000000D6
:104CC000000101060000000000000000000000805C
:104CD00001400220041008081004000002200220F5
:104CE0000220022002200220022000000000100406
:104CF00008080410022001400080000000000E009F
:104D00001200100C106C10800F00000003E00C1853
:104D100013E4142417C4082807D000000004003C42
:104D200003C41C40074000E4001C000410041FFCE6
:104D30001104110411040E880070000003E00C1827
:104D400010041004100410081C10000010041FFCB4
:104D5000100410041004080807F0000010041FFCE1
:104D60001104110417C410040818000010041FFCDB
:104D70001104110017C010000800000003E00C1817
:104D80001004100410441C780040000010041FFCA4
:104D900010840080008010841FFC100400001004A8
:104DA00010041FFC100410040000000000030001A8
:104DB000100110011FFE10001000000010041FFC65
:104DC000110403801464181C1004000010041FFC5C
:104DD0001004000400040004000C000010041FFC78
:104DE0001F0000FC1F001FFC1004000010041FFC2B
:104DF0000C04030000E010181FFC100007F0080866
:104E0000100410041004080807F0000010041FFC30
:104E100010841080108010800F00000007F0081828
:104E200010241024101C080A07F2000010041FFCB4
:104E30001104110011C011300E0C000400000E1CF2
:104E400011041084108410441C3800001800100055
:104E500010041FFC100410001800000010001FF8C0
:104E600010040004000410041FF8100010001E00BD
:104E700011E0001C007013801C0010001FC0103CCB
:104E800000E01F0000E0103C1FC000001004180CE0
:104E9000163401C001C01634180C100410001C0098
:104EA000130400FC13041C00100000000804101C74
:104EB0001064108413041C0410180000000000008B
:104EC00000007FFE4002400240020000000030006F
:104ED0000C0003800060001C000300000000400282
:104EE000400240027FFE00000000000000000000C1
:104EF00020004000400040002000000000010001B0
:104F0000000100010001000100010001000040005B
:104F10004000200000000000000000000000009899
:104F2000012401440144014400FC000410001FFC62
:104F30000088010401040088007000000000007077
:104F400000880104010401040088000000000070D2
:104F500000880104010411081FFC0004000000F88F
:104F6000014401440144014400C800000000010460
:104F700001040FFC1104110411001800000000D6F8
:104F800001290129012901C90106000010041FFCA3
:104F9000008401000100010400FC00040000010481
:104FA000190419FC000400040000000000000003C4
:104FB00000010101190119FE0000000010041FFC8E
:104FC0000024004001B4010C0104000000001004A2
:104FD00010041FFC0004000400000000010401FC98
:104FE0000104010001FC0104010000FC010401FCBA
:104FF000008401000100010400FC0004000000F82E
:10500000010401040104010400F80000010101FF92
:105010000085010401040088007000000000007099
:10502000008801040104010501FF000101040104DD
:1050300001FC00840104010001800000000000CC9C
:105040000124012401240124019800000000010032
:10505000010007F80104010400000000010001F84C
:10506000000400040004010801FC000401000180A8
:105070000170000C001001600180010001F0010CC2
:10508000003001C00030010C01F0010000000104FB
:10509000018C00740170018C010400000101018188
:1050A0000171000E00180160018001000000018400
:1050B000010C013401440184010C000000000000D7
:1050C0000000000001003EFC400240020000000021
:1050D00000000000FFFF0000000000000000400290
:1050E00040023EFC010000000000000000006000E3
:1050F00080008000400040002000200000000000F0
:10510000000000000000000000000000000000009F
:10511000000000000000000000000000000000008F
:105120000000000000000000000000000000000F70
:1051300080380FFE380F80380000000000000000AB
:105140000000000000000000000001000006000058
:105150000C00003800003100000600000C00003890
:1051600000003000000000000000000061800067C7
:10517000F807F98000618000618000618000618033
:105180000067F807F980006180000000000000005F
:10519000000001C0E003E0F00630080418081FFF1B
:1051A000FE040E080787F00381E000000000000005
:1051B00001F000060C00040408060C7001F9C000A0
:1051C0000E00003BE000EC18070808040C18000370
:1051D000E00000000001E00007F003F818041C08DC
:1051E00004170807E1D003C0E00023B0003C08002A
:1051F0002008000010000000000000010000310045
:10520000003200001C000000000000000000000050
:10521000000000000000000000000000000000008E
:105220000000000000000000000000007F0001FFFF
:10523000C00780F00C0018100004200002000000DD
:105240000000002000021000040C00180780F0018C
:10525000FFC0007F00000000000000000000000010
:105260000000000000000000420000660000660030
:10527000003C0000180003FFC0001800003C0000C4
:105280006600006600004200000000000800000800
:105290000000080000080000080001FFC00008002E
:1052A00000080000080000080000080000000000DE
:1052B000000100003100003200001C00000000006E
:1052C00000000000000000000000000000000000DE
:1052D00000000000080000080000080000080000AE
:1052E000080000080000080000080000080000088E
:1052F000000000000000000000000000380000383E
:105300000000380000000000000000000000000065
:105310000000000000000000000000000006000087
:105320001C000070000180000E0000380000C0006A
:105330000700001C0000300000000000000000001A
:105340007F8001FFE003807006001804000804005D
:105350000806001803807001FFE0007F8000000055
:10536000000000000000010008010008010008031F
:10537000FFF807FFF8000008000008000008000020
:105380000000000000000001C03802C0580400986E
:10539000040118040218040418061C1803F8180164
:1053A000E0F800000000000000000001C0E003C0C1
:1053B000F004000804080804080806180803F41894
:1053C00001E7F00001E00000000000000000000024
:1053D0000300000D000011000061000081080301BE
:1053E0000807FFF80FFFF80001080001080000009F
:1053F0000000000000E007FCD006080806100806C0
:105400001008061008061838060FF00607C000003E
:1054100000000000000000003F8001FFE003843036
:1054200002081804100804100804100807181003D4
:105430000FF00007C000000000000000000003C0E3
:10544000000700000600000600F80607F80618002E
:1054500006E0000700000600000000000000000158
:10546000E1E003F7F0063410041808041808040CEF
:1054700008040C0806161803F3F001C1E000000050
:1054800000000000F80003FC3003063804020804A2
:1054900002080402080404100308F001FFC0007FA2
:1054A00000000000000000000000000000000000FC
:1054B00000000000703800703800703800000000F4
:1054C00000000000000000000000000000000000DC
:1054D0000000000000000000301A00301C00000036
:1054E00000000000000000000000000000000000BC
:1054F00000000008000014000022000041000080AD
:105500008001004002002004001008000800000094
:105510000000000021000021000021000021000007
:1055200021000021000021000021000021000021B5
:105530000000000000000000000008000804001047
:105540000200200100400080800041000022000095
:10555000140000080000000000000003C00004C0A8
:1055600000040000080038080F3808083808100048
:105570000C300007E00003C0000000000000000045
:105580003F8000FFE0038070020F1006708804C0A7
:1055900088048308047F8802C09003012000FE4035
:1055A0000000080000180001F8003E0801C20007D2
:1055B000020007E20000FE00001FC80001F8000022
:1055C0003800000804000807FFF807FFF80408087F
:1055D00004080804080804080806180803F4180159
:1055E000E7F00001E0000000000000003F8001FF44
:1055F000E00380700200180400080400080400089A
:105600000400100600200780C00000000400080706
:10561000FFF807FFF804000804000804000804006D
:105620001802001003807001FFE0007F800000007E
:1056300004000807FFF807FFF80408080408080436
:105640000808040808043E080400080600180100C1
:105650006000000004000807FFF807FFF8040808CE
:10566000040800040800040800043E0006000006C8
:105670000000018000000000000000003F8001FFEA
:10568000E003807006001804000804020804020801
:105690000203F00783F00002000002000400080784
:1056A000FFF807FFF80408080008000008000008D9
:1056B0000000080004080807FFF807FFF8040008C6
:1056C00000000000000004000804000804000807AF
:1056D000FFF807FFF80400080400080400080000B1
:1056E00000000000000000000006000007000001AC
:1056F00004000104000104000307FFFE07FFFC048F
:10570000000004000004000004000807FFF807FF81
:10571000F8040C08001800003E0004C7800503C808
:105720000600F80400380400180000080400080708
:10573000FFF807FFF8040008000008000008000058
:1057400008000008000008000018000060000000C9
:1057500004000807FFF807800807FC00007FC0006E
:1057600003F80007C000780007800807FFF807FF6C
:10577000F804000804000807FFF807000803C00049
:1057800000E000003800001E000007000001C00417
:1057900000F007FFF8040000000000007F8001FF18
:1057A000E0038070060018040008040008060018D2
:1057B00003003001FFE0007F8000000004000807C4
:1057C000FFF807FFF80404080404000404000404BC
:1057D00000040400060C0003F80001F000000000C3
:1057E000000000007F8001FFE00380700600880455
:1057F00000880400C806003C03003E01FFE6007F6D
:105800008400000004000807FFF807FFF8040808F8
:10581000040800040C00040F00040BC00610F00381
:10582000F03801E00800000800000001E0F803F093
:1058300030063010041808041808040C08040C087A
:105840000206180207F00781E00000000180000650
:10585000000004000004000004000807FFF807FF30
:10586000F8040008040000040000060000018000A5
:1058700004000007FFE007FFF00400180000080024
:10588000000800000800000800000804001007FFDE
:10589000E004000004000006000007E00007FE002E
:1058A000041FE00001F80000380001E0043E00079A
:1058B000C00006000004000004000007E00007FF2D
:1058C000C0041FF80007C007F80007FF80043FF876
:1058D0000007C004F80007000004000000000004F6
:1058E000000806001807C07805F1C8003E00001F38
:1058F000800463E80780F806001804000800000030
:1059000004000006000007800007E008047C08008F
:105910001FF80007F800180804E008070000060058
:10592000000400000000000100080600380400F830
:105930000403E8040F08047C0805F00807C0080702
:1059400000180400600000000000000000000000DB
:10595000000000000000003FFFFE200002200002C7
:1059600020000220000220000200000000000000D1
:10597000000008000007000000C00000380000061A
:10598000000001C000003000000E00000100000017
:105990000000000000002000022000022000022081
:1059A00000022000023FFFFE000000000000000097
:1059B00000000000000000000000000000080000DF
:1059C000100000300000200000300000100000082F
:1059D00000000000000000000000010000010000C5
:1059E00001000001000001000001000001000001B1
:1059F00000000100000100000100000100000000A3
:105A00000000000000200000200000100000100036
:105A10000000000000000000000000000000000086
:105A20000000000000F00019F8001B180022080018
:105A30002608002408002410003FF8001FF800008A
:105A40000800001800000004000007FFF80FFFF036
:105A50000018180010080020080020080030180066
:105A60001FF0000FC00000000000000007C0001F72
:105A7000F0001830002008002008002008003C0832
:105A8000001C10000060000000000000000000008A
:105A900007C0001FF0003818002008002008002070
:105AA0000804101007FFF80FFFF0000010000000BE
:105AB0000000000000000007C0001FF000123000CE
:105AC0002218002208002208003208001E10000ED2
:105AD0002000000000000000200000200800200836
