:020000040800F2
:10000000F8060020E50100080B250008612400081F
:1000100009250008291300084926000800000000EF
:100020000000000000000000000000000F25000894
:100030002B130008000000000D2500081125000802
:10004000FF010008FF010008FF010008FF01000890
:10005000FF010008FF010008FF010008FF01000880
:10006000FF010008FF010008FF010008FF01000870
:10007000FF010008FF010008FF010008FF01000860
:10008000FF010008FF01000849120008FF010008F5
:10009000FF010008FF010008FF010008FF01000840
:1000A000FF010008FF010008FF010008FF01000830
:1000B000FF010008FF010008FF010008FF01000820
:1000C000FF010008FF010008FF010008FF01000810
:1000D000FF010008FF010008FF010008FF01000800
:1000E000FF010008FF010008FF010008FF010008F0
:1000F000FF010008FF010008FF010008FF010008E0
:10010000FF010008FF010008FF010008FF010008CF
:10011000FF010008FF010008FF010008FF010008BF
:10012000FF010008FF010008FF010008FF010008AF
:1001300000F002F800F047F80AA090E8000C8244B2
:100140008344AAF10107DA4501D100F03CF8AFF28F
:10015000090EBAE80F0013F0010F18BFFB1A43F0A5
:1001600001031847502B0000702B0000103A24BFE9
:1001700078C878C1FAD8520724BF30C830C144BF0C
:1001800004680C607047000000230024002500264E
:10019000103A28BF78C1FBD8520728BF30C148BFEA
:1001A0000B607047662902F0B584002070471FB5C8
:1001B00000F0F8FA04000020002102F0D3FAE06019
:1001C0001FBD10B510BD00F009FC1146FFF7EFFF91
:1001D00002F076FA00F027FC03B4FFF7F2FF03BC4D
:1001E00002F057FA0948804709480047FEE7FEE752
:1001F000FEE7FEE7FEE7FEE7FEE7FEE7FEE7FEE7D7
:1002000004480549054A064B704700008F25000841
:1002100031010008F8000020F8060020F802002054
:10022000F8020020704700000FB4044910B503AA7B
:10023000029800F0A5FA10BC5DF814FB080000203D
:100240002DE9F0410E460446002020622046E16878
:10025000884730B3252805D0D4E901219047206A8A
:10026000401CF2E7E168204600278847050018D0C7
:10027000A5F14100192802D820354FF40067324615
:10028000294620462760FFF78DFF40B1012804D0A2
:10029000F61D26F007060836D8E7361DD6E72846AD
:1002A000DAE7206ABDE8F08110B5203AC0F00B8093
:1002B000B1E81850203AA0E81850B1E81850A0E86A
:1002C0001850BFF4F5AF5FEA027C24BFB1E81850C4
:1002D000A0E8185044BF18C918C0BDE810405FEA34
:1002E000827C24BF51F8043B40F8043B08BF7047B0
:1002F000D20728BF31F8023B48BF11F8012B28BFB5
:1003000020F8023B48BF00F8012B70474FF0000275
:1003100000B5134694469646203922BFA0E80C50FB
:10032000A0E80C50B1F12001BFF4F7AF090728BFD6
:10033000A0E80C5048BF0CC05DF804EB890028BF52
:1003400040F8042B08BF704748BF20F8022B11F07B
:10035000804F18BF00F8012B7047704770477047F7
:10036000704770472DE9FF4F0C461E464FF0FF3790
:100370008BB0D2E90001DDF860800A908A46C1F3B3
:100380000A5505B93D46002108464FF00000BAF174
:10039000000F00F4400005DA00EB80004FF440014C
:1003A00001EA50004FEA9059B9F1010F00DDB9465A
:1003B0000A9850EA4A000ED044F61050A5F2FF35D4
:1003C00045432F14B8F1000F1ED07542291E1EDDC3
:1003D000C9F100021CE0B8F1010F4FF0000001D09C
:1003E000302103E0F24305E02154401CB042FBDB26
:1003F00030460022002121540B99C1F80880C1E940
:1004000000200FB0BDE8F08FBD1B6D1CDEE74A4633
:1004100000DA694206A800F067FA06AB93E8070025
:1004200003AB83E8070050460A9900F045FB8DE8CE
:100430000700A0F500501F3800900398002D0ADD3A
:1004400042F21F014A460844002303A9039068466C
:1004500000F0AEFD09E0A0F500504A461F38002329
:1004600003A90390684600F0B8FD8DE8070000047A
:10047000000C03D04FF0FF30410800E01046B8F107
:10048000000F03D00022009215461EE0751E05D411
:1004900000F08CF9303262556D1EF9D5B346012259
:1004A000084302D000227F1C04E02078302801D1CC
:1004B00000227F1E002A099784D01DE0112D07DA43
:1004C00000F074F9303262556D1C50EA0102F5D12A
:1004D000084302D00098C8B10EE00021681E05E074
:1004E000235C625C63542254401E491C8142F7DB4A
:1004F000AB46A81B401E0990002004F80B000B9887
:10050000099AC0F80880C0E9002B7AE711264FF05D
:10051000000857E72DE9F04F88460446D21D22F027
:10052000070191B0D1E90001CDE90A0102F08DF88F
:1005300002460B98C00F01D02D2007E020688107EC
:1005400001D52B2002E0202101EAC000032A0990F6
:1005500001D0072A05DB03464146204600F084F916
:100560000BE12078800601D5E06900E00620B8F1B3
:10057000650F814606D0B8F1660F18D0B8F1670F45
:1005800070D131E00020B9F1110F009001DB11238F
:1005900001E009F101030AAA01A90CA8FFF7E2FE94
:1005A000DDE90C70002609F10105834647E00120D2
:1005B0004B4600904FF000470AAA01A90CA8FFF78C
:1005C000D1FEDDE90DB00C995D46002610B909F1A8
:1005D00001000D18B9EB050003D4C0F1FF3609F195
:1005E0000105A5EB09002BE0B9F1010F01DA4FF08D
:1005F00001090020B9F1110F0090484601DD1123D7
:1006000000E003460AAA01A90CA8FFF7ABFEDDE94A
:100610000C704D4600268346207800070AD4AB456F
:1006200000DA5D4601A8012D04DD411911F8011C15
:10063000302907D04F4502DA17F1040F04DA012000
:1006400082460FE06D1EEEE7002F02DCED1B3E44FC
:1006500003E0781CA84200DD7D1CB81B00F1010AF4
:100660004FF000472078000703D4AA4501DB4FF084
:10067000FF3A0021B7F1004F0DF143088DF8431008
:1006800024D002202B23002F01DA7F422D230A21C0
:10069000021EA0F1010000DC5FB197FBF1FC97FBAB
:1006A000F1F201FB1C7C17460CF1300C08F801CD6F
:1006B000EEE7A8F1010003702188090501D5452165
:1006C00000E06521A0F1010800F8011C09980FA9BC
:1006D000A1EB0807FF1D00B10120411901EBEA70F1
:1006E000A1693844081A401EA0612078C00602D4CF
:1006F0002046AFF30080099828B1D4E90121904742
:10070000206A401C20622078C00622D52046AFF324
:1007100000801EE0002E04DBB34502DD01A8805DF1
:1007200000E03020D4E901219047206A401C20627B
:10073000761CAAF101005FEA000A0AD100F032F843
:10074000C0680168405CD4E901219047206A401CE0
:100750002062281EA5F10105DCDC07E0D4E90121B7
:1007600018F8010B9047206A401C2062381EA7F140
:100770000107F3DC2046AFF30080032011B041E60F
:10078000074B70B50D467B4400F05BF804462846E5
:1007900000F01CF910B14FF0FF3070BD204670BD65
:1007A0001F1F000000487047B400002030B5B0F1B2
:1007B0000A024FEA900E71F100034EEA817EB0EB1F
:1007C0000E0061EB91014FEA101E4EEA017E10EB24
:1007D0000E0041EB11114FEA102E4EEA016E10EBA4
:1007E0000E0041EB11214FEA104E4EEA014E10EB84
:1007F0000E0041EB1141401841F100014FEAD000D9
:1008000040EA41704FEAD10110EB80054FEA8104C4
:1008100044EA907444EB01046D1944EB0404521B48
:10082000A3414FF0000348BF0A3200D530BD401C41
:1008300041F1000130BD000001694A1C02610878E5
:10084000704700B58FB0CDE9013100210591054910
:100850007944CDE9031011466846FFF7F1FC0FB06B
:1008600000BD0000E5FFFFFF2DE9F0411F460446F3
:1008700003260168072A01F4006004DB08B116A50D
:1008800005E016A503E008B115A500E015A521F0C7
:1008900010002060A069C01EA0610FB1401EA061C1
:1008A0002046AFF300804FB1D4E90121384690478C
:1008B000206A401C2062C01C206206E0206AFAE721
:1008C000D4E9012115F8010B9047761EF8D2204695
:1008D000AFF30080BDE8F0814E414E006E616E00C6
:1008E000494E4600696E66002DE9F047814616467E
:1008F0008AB0354878440DC88DE80D0032487844F8
:10090000801C03AC0DC884E80D0041F69B30084400
:10091000372190FBF1F290FBF1F5A5F1800501FB89
:1009200012041B3C02D56442012000E00020DFF8E5
:1009300098A080460027FA44AAF1BE0A0EE0E0071C
:100940000AD03246684607EB470101230AEB8101D2
:1009500000F043FB8DE8070064107F1C002CEED1F3
:10096000194F7F44AE3F19E0E80715D007EB04109C
:100970000DF1180A90E80E008AE80E00C068F042F7
:1009800001D1981908903246012306A903A800F066
:1009900024FB03AB83E807006D10641C002DE3D13A
:1009A0004FF0010332466946B8F1000F03A802D0A8
:1009B00000F0FEFA01E000F010FBC9E90001C9F8FF
:1009C00008200AB0BDE8F087A4230000007B00F0F7
:1009D0008000704700487047940000207546FFF77C
:1009E000F9FFAE4605006946534620F007008546EC
:1009F00018B020B5FFF704FCBDE820404FF000061A
:100A00004FF000074FF000084FF0000B21F00701F6
:100A1000AC46ACE8C009ACE8C009ACE8C009ACE839
:100A2000C0098D46704710B50446AFF300802046DC
:100A3000BDE81040FFF7D0BB4FF0013C50F8042B4D
:100A400051F8043B9A4221D1A2EB0C03934313EAE1
:100A5000CC1317D150F8042B51F8043B9A4215D10E
:100A6000A2EB0C03934313EACC130BD150F8042BE5
:100A700051F8043B9A4209D1A2EB0C03934313EAC9
:100A8000CC13DBD04FF00000704700BFD01A01BA82
:100A9000B1FA81F101F0180122FA01F0CB40C1F165
:100AA0002001DBB2C0B2C01A2CFA01F3D11A914373
:100AB00011EAC311E6D170475FEA400C08BF91F01C
:100AC000000F4FEA8C234FEAC12243EA51514FEA0B
:100AD0001C5018BF00F5F0404FEA300018BF41F03D
:100AE00000415FEA6C5C00F02980BCF1FF3F08BF69
:100AF00040F080407047130C06BF12044FF0100CFA
:100B00004FF0000C130E04BF12020CF1080C130F6F
:100B100004BF12010CF1040C930F04BF92000CF1FE
:100B2000020CD30F04BF52000CF1010C11464FF020
:100B30000002A0F11F00A0EB0C00704711F0004F65
:100B400008BF704731F000413FF4D5AF0B0C06BF32
:100B500009044FF0100C4FF0000C0B0E04BF0902FB
:100B60000CF1080C0B0F04BF09010CF1040C8B0FE6
:100B700004BF89000CF1020CCB0F04BF49000CF13B
:100B8000010CCCF12003A0EB0C0022FA03F302FAD3
:100B90000CF241EA030100F10100704720F07F4CA4
:100BA00080EA030023F07F47ACEB070303F57C5397
:100BB00000F0004003F1FF032DE980494FEA154B97
:100BC00009B44FEA144325EA0B4E24EA03480FF216
:100BD000042606EB132749083E785FEA320203FB3E
:100BE0000667C7F5000707FB06F64FEA54374FEADA
:100BF000D64606F1020607FB066CCCF1005C4FEA14
:100C00001C472CEA074C07FB06F40CFB06F504EB2B
:100C100015464FEA961634BF00204FF000404FEAC9
:100C2000D13706FB07FC4FEA1C4C0CFB0BF7D21B21
:100C300003FB0CF761EB07010CFB0EF7B0EB074071
:100C400072EB17420CFB08F734BFA2EB0742B2EB82
:100C5000074261EB17414FEA0C444FEA910706FB4C
:100C600007FC4FEA1C4C0CFB0BF7B0EBC74072EBD8
:100C7000573203FB0CF734BFA2EBC742B2EBC742BB
:100C800061EB57310CFB0EF7B0EBC70072EB5772FC
:100C90000CFB08F734BFA2EBC702B2EBC70261EB53
:100CA0005771039F4FEA816141EA921104EBCC0432
:100CB0004FEAD1374FEA826206FB07FC42EA901204
:100CC0004FEA80604FEA1C4C0CFB0BF7D21B03FB76
:100CD0000CF761EB07010CFB0EF7B0EB074072EB72
:100CE00017420CFB08F734BFA2EB0742B2EB0742F6
:100CF00061EB17414FEA8C554FEA910704EB9C24B6
:100D000006FB07FC4FEA1C4C0CFB0BF7B0EBC74093
:100D100072EB573203FB0CF734BFA2EBC742B2EBC6
:100D2000C74261EB57310CFB0EF7B0EBC70072EB1B
:100D300057720CFB08F734BFA2EBC702B2EBC70235
:100D400061EB577115EB4C254FEA816141EA921135
:100D50004FEA82624FEAD13742EA901206FB07FC63
:100D600044F100044FEA80604FEA1C4C0CFB0BF787
:100D7000D21B03FB0CF761EB07010CFB0EF7B0EB8A
:100D8000074072EB17420CFB08F734BFA2EB074297
:100D9000B2EB074261EB174115EB1C154FEA8131AD
:100DA00041EA92414FEA823242EA90424FEA803071
:100DB0004FEA0C7644F1000448EA03434EEA0B483C
:100DC0004FF0000EB2EB080C71EB030724BF624634
:100DD00039464EEB0E0E4FF0000B001852414941C0
:100DE0004BEB0B0BB2EB080C71EB03077BF1000B29
:100DF00024BF624639464EEB0E0E4FF0000B001832
:100E0000524149414BEB0B0BB2EB080C71EB030762
:100E10007BF1000B24BF624639464EEB0E0E51EAC1
:100E2000020718BF46F0010616EB0E7655F10002D8
:100E300054F1000103D5BDE88901BDE80088BDE893
:100E40008901BDE80048B619524141EB0101A3F107
:100E50000103704780807F7E7D7C7B7A797877760E
:100E600076757473727171706F6E6E6D6C6C6B6A87
:100E70006A69686867666665646463636261616025
:100E8000605F5F5E5E5D5D5C5C5B5B5A5A595958A2
:100E9000585757565655555554545353525252510C
:100EA000515050504F4F4F4E4E4D4D4D4C4C4C4B62
:100EB0004B4B4A4A4A4949494848484747474746A9
:100EC00046464545454444444443434343424242E5
:100ED00042414141002B9C4630D477002BD01CB5B9
:100EE0004FEA370703B44FF010004FF01001BAF18A
:100EF000000F06D0BCF1000FDCBF40F0080040F04E
:100F000008014FF000000FBCBDE810400BF1010BD1
:100F1000BBF1010F08BF5FEA170722BF12F1010200
:100F200011F101014FF0004143F1000300F00040D6
:100F300043EA00007047F9D35708D0E746EA06466F
:100F400013F1400F4FEA16461FDD13F1200FDFBFEC
:100F500016430A46002120335B42BED0C3F120076E
:100F600046EA064602FA07F74FEA164646EA070639
:100F7000C3F1200722FA03F201FA07F721FA03F17D
:100F80004FF0000342EA0702A7E746EA020646EAF4
:100F900006464FEA164646EA0106BCBF46EA064642
:100FA000360C4FF000034FF000024FF0000194E7C1
:100FB0002DE9804C9A46934670B491E8380007C8F2
:100FC00031EA400C48BF34EA430C03D5FFF7E6FD95
:100FD000FFF780FFF0BCBDE8008C2DE9804C9A46FD
:100FE000934670B491E8380007C810F0804F08BFEE
:100FF00013F0804F03D100F005F8FFF76BFFF0BC52
:10100000BDE8008C20F07F4780EA030023F07F4C8E
:1010100007EB0C03A3F57C5300F00040A3F1FE03A3
:1010200092F0000F00F0B38095F0000F00F0778091
:101030002DE901494FEA11404FEA144621EA0048E0
:1010400000FB06FC24EA064708FB06F607FB08F847
:1010500000FB07F718EB06484CEB164C4FEA124B17
:1010600018EB07484FEA15464CEB174022EA0B4EA7
:101070000BFB06FC25EA06470EFB06F607FB0EFEF9
:101080000BFB07F71EEB064E4CEB164C4FF0000621
:101090001EEB074E4CEB174B18EB0B0840F1000012
:1010A00018EB0E0B58EB000840F100008F1A4FF0C0
:1010B00000013CBFC943661B14BFB5EB040C002103
:1010C0003CBFC943F61B4FEA17444EEA8E0E27EA8F
:1010D00004454FEA1C4704FB07622CEA074C05FB5A
:1010E00007F70CFB05F604FB0CFC16EB074642EB7E
:1010F000174216EB0C4642EB1C421BEB060658EB64
:101100000202414146EA9E0601D5BDE80189B619B1
:10111000524141EB0101A3F10103BDE801894FEA0E
:1011200014454FEA114724EA054621EA074C05FB1E
:1011300007F406FB07F70CFB06F105FB0CFC11EBB3
:10114000074144EB17444FEA124711EB0C4144EBC3
:101150001C4422EA074C05FB07F206FB07F70CFBD1
:1011600006F605FB0CFC16EB074642EB174216EBA6
:101170000C4642EB1C456A1854F1000148BF704709
:10118000B619524141EB0101A3F10103704795F0FB
:10119000000F37D04FEA11424FEA144721EA0246C6
:1011A00024EA074C02FB07F106FB07F70CFB06F4E9
:1011B00002FB0CFC14EB074441EB17414FEA1547C7
:1011C00014EB0C4441EB1C4125EA074C02FB07F5EC
:1011D00006FB07F70CFB06F602FB0CFC16EB0746BA
:1011E00045EB174516EB0C4645EB1C42121951F125
:1011F000000148BF7047B619524141EB0101A3F10C
:10120000010370474FEA14454FEA114724EA0546A7
:1012100021EA074C05FB07F106FB07F70CFB06F27A
:101220004FF0000605FB0CFC12EB074241EB1741A7
:1012300012EB0C4251EB1C4148BF7047921841EB36
:101240000101A3F101037047014800F03FB900001C
:101250002000002070B5044600688168C943C907B2
:1012600017D1816821F00101816000F075FC05460D
:101270000AE000BF00F070FC401B022804D920687F
:101280008068C043C00706D020688068C043C0079C
:10129000F0D0002070BDA06A40F01000A062E06AAB
:1012A00040F00100E062012070BD0000F8B50026AA
:1012B0000446009600688168C943C9072DD081683B
:1012C00041F001018160164816490068B0FBF1F059
:1012D00000E0401E00900028FBD100F03DFC0546D8
:1012E00016E000BF00F038FC401B022810D920682F
:1012F0008068C043C0070BD0A06A40F01000A06215
:10130000E06A40F00100E06284F824600120F8BD4A
:1013100020688068C043C007E4D10020F8BD000009
:101320001800002040420F00FEE7704772B6FEE74B
:101330000FB40EB569461098009001200190072067
:10134000029004A800F040F804A800F097FA0A21DF
:1013500004A800F0F5F904A800F0B5F803B080B2D5
:101360005DF814FB0FB42DE9F04196B00025DDE9DE
:1013700028872C460DAE1BE028221CA909A8FEF7E1
:1013800093FF2698139027981490202231466846A0
:10139000CDF82080FEF788FF0DF1240C9CE80F00AB
:1013A000FFF7C6FF0544052000F0C8FA641CE4B24C
:1013B000BC42E1D3B5FBF7F016B080B2BDE8F00156
:1013C0005DF814FB70470000F8B50024009490F815
:1013D00024202546012A12D0012280F824204A68C0
:1013E0001F23072A0DD20668776B521E02EB82027A
:1013F00093409F430B6893401F43776319E002209B
:10140000F8BD06680D2A0AD2376BD21F02EB8202A2
:1014100093409F430B6893401F43376309E0F76A8B
:101420000D3A02EB820293409F430B6893401F43A7
:10143000F7620A68072306680A2A0AD3F7680A3A95
:1014400002EB420293409F438B6893401F43F76037
:1014500008E0376902EB420293409F438B68934058
:101460001F4337610A68102A01D0112A20D1124B7C
:1014700002689A4217D193681B0219D4936843F407
:10148000000393600968102912D10C490C4A0968BD
:10149000B1FBF2F101EB8101490000E0491E00912E
:1014A0000029FBD104E0816A41F02001816201241E
:1014B00080F824502046F8BD002401401800002088
:1014C00040420F0070470068C06C704710B504467A
:1014D00000684168890626D50168890723D5A16A75
:1014E000C90603D4A16A41F40071A1628168C1F305
:1014F0004241072910D1217B71B9416821F02001B7
:101500004160A06A20F48070A062A06AC00403D485
:10151000A06A40F00100A0622046FFF7D3FF2168D7
:101520006FF0120008602068416809062ED5016836
:1015300049072BD5A16AC90603D4A16A41F4005119
:10154000A1628168C1F30231072909D041684905C8
:1015500015D48168C1F34241072910D1217B71B9AB
:10156000416821F080014160A06A20F48050A062AF
:10157000A06AC00503D4A06A40F00100A062204622
:10158000FFF720FF21686FF00C00086020684168B9
:1015900049060DD50068C0070AD0A06A40F4803023
:1015A000A062204600F096F821686FF00100086004
:1015B00010BD00002DE9F04104004FF000057FD080
:1015C000A06A002628B9E66284F82460204600F06C
:1015D00083F82046FFF73EFEA16AC90600D420B179
:1015E000A06A40F01000A0626AE0A16A21F488516C
:1015F00041F00201A162334923688B42E16904D1C1
:10160000B1F5402F01D14FF40021277B4FF4807CAE
:1016100041EA470261680A43A168614508D001298F
:1016200006D0002194F814E0BEF1010F02D00AE0C8
:101630006146F7E7C7B1A76A47F02007A762E76AE4
:1016400047F00107E7625F6827F469470F435F606F
:10165000236899681C4F394011439960A16861451E
:101660000BD0012909D00CE0DFF860E0A7690EEB90
:1016700047370F4347F40061E5E7218A0D05A5F5DB
:1016800080152168CB6A23F470032B43CB62216859
:1016900089680F4B1940914208D1E662A16A21F096
:1016A000020141F00101A162BDE8F081A06A20F0D1
:1016B000020040F01000A062E06A40F00100E06229
:1016C0000120F1E7003C0140FDF7E1FF00E0FFFFF2
:1016D000FE0E1FFF7047000000B585B0002100918D
:1016E00001910291039100681249884220D1124869
:1016F000816941F400718161816901F40071049193
:10170000816941F0040181618069694600F004004B
:1017100004902020009003200190084800F020F958
:1017200000220121122000F083FA122000F072FA48
:1017300005B000BD00240140001002400008014037
:101740002DE9F84300270D460446009700F004FAFF
:10175000804620688168C90508D5A06A40F020004D
:10176000A06284F824700120BDE8F8834168C905AF
:1017700003D4C06A10F4700F2AD0022000F08AFA55
:101780003B490968B1FBF0F62068036939490B420F
:101790004FEA61014FEAA1121FD1C3684FEA611CF1
:1017A00013EA0C0F19D103690B4225D1C06810420E
:1017B00022D1142023E0681C0AD02DB100F0CCF90E
:1017C000A0EB0800A84203D920680068800725D54F
:1017D000206800688007EED52DE003690B4202D136
:1017E000C168114206D0026923490A4206D1C06885
:1017F000084203D1542002E0292000E0FC204643A7
:10180000009816E0681C11D02DB100F0A5F9A0EBEE
:101810000800A8420AD90098B04207D2A06A40F056
:101820000400A06284F8247003209DE70098401C07
:101830000090B042E6D321686FF012000860A06A01
:1018400040F40070A06220688068C0F3424007281E
:101850000CD1207B50B9A06A20F48070A062A06AED
:10186000C00403D4A06A40F00100A06200207BE71E
:1018700018000020244992244992240070B504469F
:1018800090F8240001280DD0012084F8240020467F
:10189000FFF70CFD02004FF0000005D084F8240093
:1018A000104670BD022070BDA16A40F20123994329
:1018B00041F48071A1621F4D23681F49AB4218D1CA
:1018C0000E6816F4702F14D0A66A46F48016A6622D
:1018D0000E68760505D5A66A26F4005646F48056AD
:1018E000A662A66AF6040AD5E66A26F00606E6624D
:1018F00006E0A66A26F48016A6625E68E9E7E06262
:1019000084F824006FF00200186020688368C3F335
:101910004243072B05D1A84208D1096811F4702F62
:1019200004D0816841F480118160B9E7816841F495
:10193000A001F9E7002801400424014070B50446E5
:1019400000F00AF90546601C02D0044800780444FF
:1019500000F002F9401BA042FAD370BD0C00002039
:101960002DE9F84FDFF8C891002409F1040A0AF1C3
:10197000040B23460F270BF1040ED1E00125A540EF
:1019800006EA0502AA4276D1DFF8A8C14E68A6EBA6
:101990000C0866452BD00DDC032E34D005DC36B3A5
:1019A000012E19D0022E2FD11BE0112E16D0122E8F
:1019B0002AD119E0B8F5881F19D006DCB8F5803FA8
:1019C00015D0B8F5801F1FD111E0B8F5001F0ED05B
:1019D000B8F5041F18D10AE0CB6815E0CB681B1DD1
:1019E00012E0CB6808330FE0CB680C330CE08B6857
:1019F0002BB1012B4FF0080303D0456104E0042311
:101A000002E0056100E00023FF2A01D8064601E05C
:101A100000F104064FEA840501D9A5F12005D6F8A6
:101A2000008007FA05FC28EA0C0803FA05F548EAE5
:101A30000508C6F800804D68ED0070D53E4DAE69D2
:101A400046F00106AE61AD6924F0030605F001051C
:101A500000953A4D06EB050CDCF80850A607360F4A
:101A600007FA06F825EA0805DFF8D480404503D1D7
:101A70004FF0000825E052E0DFF8C880404502D171
:101A80004FF001081DE0DFF8C080404502D14FF063
:101A9000020816E0DFF8B480404502D14FF0030899
:101AA0000FE0DFF8AC80404502D14FF0040808E0B9
:101AB000DFF8A080404502D14FF0050801E04FF06B
:101AC000060808FA06F848EA0508CCF808804D68C8
:101AD000D9F80060ED034D4601D5164300E096436A
:101AE0002E604D68DAF80060AD03554601D5164307
:101AF00000E096432E604D68DBF80060ED025D4625
:101B000001D5164300E096432E604D68DEF8006074
:101B1000AD02754601D5164300E096432E60641C65
:101B20000A681646E2407FF429AFBDE8F88F00004E
:101B300000040140000011100010024000000140AC
:101B400000080140000C0140001001400014014059
:101B500000180140001C01400148806870470000E7
:101B60000C000020024881680278114481607047AF
:101B70000C000020074810B5016841F01001016019
:101B8000032000F075F80F2000F006F800F024F8AC
:101B9000002010BD0020024070B50D4D04464FF4EA
:101BA0007A712878B1FBF0F00A490968B1FBF0F0CE
:101BB00000F0D8FB48B9102C07D200222146501E55
:101BC00000F036F800206C6070BD012070BD000090
:101BD0000C000020180000200C4808B5816941F075
:101BE00001018161816901F001010091C16941F048
:101BF0008051C161C06900F0805000900448416884
:101C000021F0E06141F00071416008BD0010024028
:101C100000000140002809DB00F01F020121914073
:101C20004009800000F1E020C0F80011704700007A
:101C3000F0B40E4B1B680C46C3F30223C3F1070537
:101C4000042D00D90425191D072901D2002300E025
:101C5000DB1E012606FA05F1491E214099409E40EF
:101C6000761E16403143F0BC00F003BD0CED00E0E1
:101C7000064900F0070208684FF6FF03184040EAE3
:101C80000220034A10430860704700000CED00E09A
:101C90000000FA0510B52CA401461DCC86B08DE8D5
:101CA0001D002DA02D4C00680490002004292FD089
:101CB0000BDC01292FD0022928D100F071F96168CD
:101CC000C1F38131491C49001EE0082920D01029A8
:101CD0001CD161682268D20118D5C1F38342C903BF
:101CE0001DF8020009D5616804AAC1F34041515CA6
:101CF0001B4AB2FBF1F1484301E01A4948436168CD
:101D0000490203D440000321B0FBF1F006B010BD3E
:101D100000F056F9FAE7226AC2F30121012903D142
:101D2000920701D5C803F1E7022905D1626A92073B
:101D300002D549F64040E9E70329E7D12168890344
:101D4000E4D54FF22440E1E7020304050607080941
:101D50000A0B0C0D0E0F10100102000000100240C3
:101D600000127A0000093D002DE9F843054600788D
:101D7000354CC00754D0E0690026C00008D4E069A3
:101D800040F08050E061E069012600F08050009052
:101D90002E480168C90512D40168804641F480715B
:101DA0000160FFF7D9FE074605E000BFFFF7D4FE4C
:101DB000C01B642823D8D8F80000C005F6D5206AD7
:101DC00010F4407021D0A98801F4407181421CD0E8
:101DD000206A1F49012220F440700A6000220A6034
:101DE0002062C00711D0FFF7B7FE074641F28838DE
:101DF00008E000BFFFF7B0FEC11B414502D9032038
:101E0000BDE8F883206A8007F4D5206A696820F469
:101E10004070084320621EB1E06920F08050E0610C
:101E20002878800705D56068A96820F440400843F9
:101E300060602878C00605D56068696920F4800074
:101E4000084360600020DBE70010024000700040A3
:101E5000400442422DE9F0470F46050061D0434E51
:101E6000306800F00700B84209D2306820F007005F
:101E700038433060306800F00700B84251D128681C
:101E80003B4C810712D5400703D5606840F4E06001
:101E900060602878000703D5606840F46050606097
:101EA0006068A96820F0F000084360602878C007E7
:101EB00028D06868012810D02168022810D089072E
:101EC00000292EDA616821F0030101436160FFF708
:101ED00043FE804641F288390DE021688903EFE72F
:101EE0008901EDE7FFF738FEA0EB0801494502D96B
:101EF0000320BDE8F0876068696800F00C00B0EB73
:101F0000810FEFD1306800F00700B8420BD930687C
:101F100020F0070038433060306800F00700B84216
:101F200001D00120E5E72878400705D56068E96819
:101F300020F4E060084360602878000706D56068F8
:101F4000296920F4605040EAC100606000F038F870
:101F50006168084AC1F30311515CC8400649086032
:101F600006480068FFF718FE0020C2E70020024084
:101F700000100240082C000818000020100000206B
:101F80000448054900684968044AC1F30221515CCC
:101F9000C84070471800002000100240182C0008AC
:101FA0000448054900684968044AC1F3C221515CEC
:101FB000C84070471800002000100240182C00088C
:101FC00012A185B00FC98DE80F0014A0144A006853
:101FD00004905168134801F00C03042B10D0082B17
:101FE0000ED1C1F38343C9031DF803000AD551681C
:101FF00004AAC1F34041515C0A4A5043B0FBF1F0DE
:1020000005B0704708494843FAE700000203040599
:10201000060708090A0B0C0D0E0F10100102000034
:102020000010024000127A0000093D002DE9F84F2F
:10203000040070D02078C04DC00749D06868C0F354
:102040008100012807D06868C0F38100022809D107
:102050006868C00306D52868800339D56068002801
:10206000E7D035E06068B0F5803F0BD010B1B0F537
:10207000A02F11D0286820F480302860286820F430
:10208000802002E0286840F480302860606890B1C9
:10209000FFF762FD06460AE0286840F480202860C9
:1020A000F0E700BFFFF758FD801B642873D828684D
:1020B0008003F7D50CE0FFF74FFD064605E000BFB3
:1020C000FFF74AFD801B6428F0D828688003F7D406
:1020D00020789A4E80074FF001094FF0000839D55B
:1020E000686810F00C0F07D06868C0F38100022800
:1020F00009D16868C00306D42868800714D5206910
:10210000012808D110E02069B0B1C6F80090FFF7AF
:1021100023FD074605E00AE1FFF71EFDC01B02286C
:10212000C4D828688007F7D52868616920F0F800CE
:1021300040EAC10028600DE0C6F80080FFF70CFD02
:10214000074604E0FFF708FDC01B022823D82868D3
:102150008007F7D4207800072CD57948A169D9B138
:10216000C0F80090FFF7F8FC074604E0FFF7F4FC26
:10217000C01B02280FD8686A8007F7D571484FF452
:10218000FA510068B0FBF1F0009000BF0098411ECA
:102190000091FAD20EE080E0C0F80080FFF7DCFC8E
:1021A000074604E0FFF7D8FCC01B022875D8686A10
:1021B0008007F7D42078400760D5E8690027C00081
:1021C00008D4E86940F08050E861E869012700F030
:1021D000805000905C480168C90513D401688346AB
:1021E00041F480710160FFF7B7FC824606E000BF52
:1021F000FFF7B2FCA0EB0A0064284ED8DBF8000021
:10220000C005F5D5E06801280AD008B1052813D02B
:10221000286A20F001002862286A20F0040002E009
:10222000286A40F001002862E06841F2883B98B1DA
:10223000FFF792FC82460BE0286A40F00400286217
:10224000EEE700BFFFF788FCA0EB0A0159455AD81A
:10225000286A8007F6D50CE0FFF77EFC824605E091
:10226000FFF77AFCA0EB0A0159454CD8286A800791
:10227000F6D41FB1E86920F08050E861E06988B3C6
:102280006968C1F38101022944D00228C6F8608040
:1022900004D0FFF761FC044638E034E0FFF75CFC53
:1022A000074604E0FFF758FCC01B02282BD828681B
:1022B0008001F7D4206AB0F5803F05D16868A16835
:1022C00020F4003008436860D4E9080108436968D5
:1022D00021F4741108436860C6F86090FFF73CFC75
:1022E000044606E025E000BFFFF736FC001B02288D
:1022F00009D828688001F7D51BE000BFFFF72CFC48
:10230000001B022802D90320BDE8F88F286880014D
:10231000F4D40EE00128F7D06868226A00F4803116
:10232000914204D1616A00F47010884201D001200A
:10233000EAE70020E8E70000001002400000424207
:102340008004424218000020007000404FF0E0215D
:102350000428086903D020F004000861704740F0A9
:102360000400FAE710B5401EB0F1807F01D30120D0
:1023700010BD4FF0E02460610F21601700F079F983
:102380000020A06107202061002010BD70B504006E
:1023900004D094F83D00002510B106E0012070BD86
:1023A00084F83C50204600F023F8242084F83D00B7
:1023B0002068C16821F40051C160204600F0E8F8AF
:1023C0002068016921F4904101612068416921F090
:1023D0002A0141612068C16841F40051C16025644F
:1023E000202084F83D0084F83E00002070BD0000ED
:1023F00030B585B0002400940194029403940068E1
:102400001449884224D11448816941F48041816192
:10241000816901F480410491816941F00401816185
:1024200080690E4D00F0040004904FF4007000909D
:10243000022001900320039069462846FFF790FA96
:102440002815CDE90004694628460294FFF788FA6A
:1024500005B030BD003801400010024000080140C6
:10246000FEE700003EB500211148009101910F4A9E
:102470000291026001248160047301754FF46022AF
:102480000461C2614160FFF795F808B1FEF74EFFA5
:102490000520CDE90004029069460548FEF794FF47
:1024A000002801D0FEF742FF3EBD0000002401409D
:1024B00020000020054808B5816941F004018161D0
:1024C000806900F00400009008BD00000010024088
:1024D0000C4810B50A4901604FF4E1314160002118
:1024E00081600C22C160C0E904128161C161FFF703
:1024F0004DFF002803D0BDE81040FEF717BF10BD08
:102500000038014050000020FEE7FEE770477047AA
:10251000FFF728BB30B595B028216846FDF7F6FED9
:1025200014210AA8FDF7F2FE18210FA8FDF7EEFE10
:1025300001210804CDE90010002502950224049130
:10254000CDE907404FF4E01009906846FFF76EFDB3
:1025500008B172B6FEE70AA90F2081E831004FF4F6
:102560008060CDE90D0502210AA8FFF773FC08B1D0
:1025700072B6FEE74FF4004011900F940FA8FFF7DA
:10258000F3FB002801D072B6FEE715B030BD7047EE
:1025900070B5044600680169E26821F440511143B6
:1025A00001612169A0680843616908432168CA681C
:1025B00041F20C639A430243CA6020684169A269F0
:1025C00021F44071114341611E492068884202D1C3
:1025D000FFF7E6FC01E0FFF7D3FC00EBC00101EBE5
:1025E0000012606864218000B2FBF0F3B3FBF1F3EA
:1025F0006FF018067343B2FBF0F5B2FBF0F605EB93
:102600008305322303EB0515B5FBF1F5B6FBF1F6B7
:1026100005F0F00505EB0615B2FBF0F6B2FBF0F0A5
:10262000B0FBF1F06FF01802504306EB800003EBB3
:102630000010B0FBF1F0216800F00F002844886022
:1026400070BD000000380140FEE7490050EAC1209B
:1026500018BF04204A0D18BF40F0010040F2FF727D
:10266000B2EB515F08BF40F00200012808BF05200F
:1026700070470907090E002804DB00F1E02080F80C
:102680000014704700F00F0000F1E02080F8141DE6
:102690007047704710B504460420FFF757FE014805
:1026A000046010BD1C00002004490A685206FCD5D5
:1026B000024AC1B2121D116070470000003801408B
:1026C00096B0FFF757FAFFF725FFFFF7F3FEFFF786
:1026D000C9FEFFF7FDFE4820FFF7DCFF1B4C142668
:1026E0001B4DDFF870A005270DF138084FF0663953
:1026F0006FF00B0B282215490AA8FDF7D5FDA06A3B
:102700001490E06A1590CDE908762022414668468B
:10271000FDF7CAFD0DF1280C9CE80F00FEF722FE24
:10272000288000F06FF84A46534600F07FF85A467A
:1027300000F024FA00F02CF8686000F075F9024609
:102740000B4605A0FDF770FDD4E700002000002037
:102750000000002066660A40566363203D2025661F
:102760000D0A000010B500290AD00878002807D00B
:1027700005487844FEF760F9002801D0002010BD1C
:102780000248784410BD0000620500005A050000B0
:1027900021F00042A2F16052B2F5801F01F0004327
:1027A00028BFD2F17F6C0BD95FEA001C43EAC2025A
:1027B00042EB507018BF704728BF20F001007047EF
:1027C000B2F5801FBCBF184670474FEA410C1CF59C
:1027D000001F02D2084600F098B970B500F0D0F89A
:1027E00000000089FFF7F6BF4FF00040A0F5800021
:1027F0007047000002494FF0000000F08DB900BFA3
:102800000000F87FB0FA80F310FA03F10AD0C3F1A8
:102810001D0303F580634FEA41504FEA035202EB78
:10282000D12170474FF0000070470000DFF848C129
:1028300070B51CEA111E1EBF1CEA13159EEA0C0F90
:1028400095EA0C0F00F06F8081EA030423EA4C1331
:102850004EEAD47E21EA4C1141F4801143F48013F6
:10286000AE44A1FB024CA0FB0365AEF17F7E36199E
:1028700055EB0C05A1FB034C4CF10003A0FB021C23
:1028800016EB0C06654153F10003094218BF46F0F0
:10289000010613F4007F0BD14FEA03314FEA0530F4
:1028A000340341EA155140EA16506FF003020AE082
:1028B0004FEAC3214FEAC520F40241EA555140EAEC
:1028C00056506FF0020202EB2E4201EB025585EAF0
:1028D000CE710AD05FEA440C18BF24F0004450F1D6
:1028E000000041F1000120EAD47040F2FE7C624514
:1028F00000D270BDA84214BF4FF080444FF0404456
:10290000002E08BF0024BEF1806FA8BFA1F1C04116
:10291000BDE8704080F282804FF0000001F1C041BC
:1029200001F0004170479EEA0C0F0CEA131518BF26
:1029300095EA0C0F06D04FF0000081EA030E0EF06E
:10294000004170BD00F01CF88900013E00F007B89E
:1029500000F009B84FEA430C5FEA5C5C08D081EAFA
:10296000030100F05BB84FEA410C5FEA5C5CF6D112
:102970004FF00000014970470000FF070000F87F9A
:102980000EF1020E2EF0030E5EF8046B364205D4F3
:10299000012A43EB030515F5001F12D8012841EB6E
:1029A000010C1CF5001F0CD80ED14FEAD17C15F597
:1029B000001F0CEB4C0C0CF1020C08BF4CEBD37C51
:1029C00004E04FF0080C01E04FEAD37C0CEB4C051F
:1029D00026FA05F606F00706B6F1040C06D20EEB51
:1029E000860CBDE870404CF0010C6047DFE80CF04D
:1029F000090B02024FF000414FF00000A1F5002149
:102A000070BD19461046012851EB010418BFD4F5DA
:102A1000001484BF002001F0004170BD0808A0F53B
:102A200000114FEA3101704743004FEAD30C4FEADF
:102A30003C0C43401FBF40070CF1605113F0FE4FA8
:102A400070471CF0006F03D100200CF0004170476C
:102A50000CF0004343EA507010B540EACC0000F09F
:102A60000EF800BF000000924FEA0001FFF7D6BF4A
:102A70004FF000414FF00000A1F5002170470EF12A
:102A8000020E2EF0030E5EF8044B244204D44FEAEB
:102A90004102B2F17F4F11D84FEA4003B3F17F4FAB
:102AA0000CD80ED14FEAD07CB2F17F4F0CEB4C0C1E
:102AB0000CF1020C08BF4CEBD17C04E04FF0080C89
:102AC00001E04FEAD17C0CEB4C0324FA03F404F050
:102AD0000704B4F1040C06D20EEB840CBDE81040E0
:102AE0004CF0010C6047DFE80CF0070802024FF0E1
:102AF0000040A0F5800010BD0846420018BFD2F18A
:102B0000807288BF00F0004010BDFF2141EAD05024
:102B1000C0057047FDF7FEBC0CF00F03092B08BF82
:102B2000082000F059800A2B0BD0082B18BF7047E3
:102B300008BF1CF0400F0AD04FF000004FF000011A
:102B400070471CF0400F18BF4FF0004070471CF05A
:102B5000100F08D020F0704300F07F4242EAD3010A
:102B60004FEA4370704700F0604021F07F4242EA34
:102B7000000201F07F4040EA727070474FF0FF0C96
:102B80004CF4E06C1CEA11531CBF9CEA030C944506
:102B9000C2BFDA4201EB02517047002B0DD0BCF1ED
:102BA000000F0FD0002A01F00041A4BF41F0E04126
:102BB00041F07F614FF00000704701F000414FF09D
:102BC0000000704750EA01334FF09B0C18BF4CF0E7
:102BD000806C7FF40FAE70471CF4801F11D01CF482
:102BE000E02F03D06FEACC31490070474FF04050DE
:102BF000EFF3008222F0704242EA000282F3008882
:102C000070474FF000007047000000000000000017
:102C10000102030406070809000000000102030482
:102C200002400000000000A000000000054000007D
:102C3000000000C8000000000C4000000000409CA4
:102C400000000000194000000020BCBE0000000091
:102C500034400000BFC91B8E00000004B5400000D6
:102C6000504BCFD06607E2CF010000006C4100005E
:102C70003E8251AADFEEA73401000000D9420000D5
:102C8000DCB5A0E23A301F97FFFFFFFFB44500001C
:102C9000FD25A0C8E9A3C14FFFFFFFFFFF3F0000D4
:102CA0000000008000000000FF3F000000000080E6
:102CB00000000000F02C00080000002020000000B0
:102CC0006C010008102D000820000020D80600002C
:102CD000880100081C00000043000000F8FFFFFF0F
:102CE0000C0000000E0000000F0000002E0000008D
:102CF00000000000000000000000000001000000D3
:102D000010000000000000000024F400000000009B
:0400000508000131BD
:00000001FF
